S01300004C43444669726D776172652E7372656301
S11300000C9434000C9451000C9451000C94510045
S11300100C9499020C9451000C9451000C945100CE
S11300200C9451000C9451000C9451000C94510008
S11300300C9451000C9451000C945A020C945100ED
S11300400C9451000C9451000C9451000C945100E8
S11300500C9451000C9451000C9451000C945100D8
S11300600C9451000C94510011241FBECFEFD8E022
S1130070DEBFCDBF11E0A0E0B1E0E6E8F7E002C0EA
S113008005900D92A637B107D9F721E0A6E7B1E0B4
S113009001C01D92A837B207E1F70E94B7030C9480
S11300A0C1030C9400002F923F92F101118210823F
S11300B01382128215821482178216823F902F9027
S11300C00895E4E6F0E080818F778083ECEBF0E044
S11300D080818E7F8083E9EBF0E080818E7F808356
S11300E088E48093B800089594EA9093BC00ECEB04
S11300F0F0E090819923ECF79091B900880F8093F8
S1130100BB0084E88093BC00ECEBF0E080818823A2
S1130110ECF78091B90008958093BB0084E8809344
S1130120BC00ECEBF0E080818823ECF78091B9000F
S113013008951F93CF93DF93C82F162F87E20E9451
S11301407400DC2FD07FDC60111119C08D2F0E9448
S11301508C008FE99FE00197F1F700C000008D2F1C
S1130160887F0E948C008FE99FE00197F1F700C01F
S113017000008C2F8295807FC82FCC601BC08D2FF0
S113018081600E948C008FE99FE00197F1F700C025
S113019000008D2F8B7F81600E948C008FE99FE08F
S11301A00197F1F700C0000020E1C29FC0011124B3
S11301B0C82FCD608C2F0E948C008FE99FE001979F
S11301C0F1F700C000008C2F8B7F0E948C008FE918
S11301D09FE00197F1F700C0000084E98093BC0020
S11301E0DF91CF911F91089560E00E9499000895D6
S11301F061E00E949900089582E084BD9CE997BD66
S113020080936E0085E085BD0E9461002FEF89EF29
S113021090E0215080409040E1F700C0000082E06F
S11302200E94F4008FE19EE40197F1F700C0000002
S113023082E00E94F4008FE99FE00197F1F700C08B
S1130240000082E00E94F4008FE99FE00197F1F73B
S113025000C0000088E20E94F4008CE00E94F400D8
S113026081E00E94F40082E00E94F4000895CF939C
S1130270DF93EC018881882331F021960E94F800F5
S113028089918111FBCFDF91CF91089581E00E9484
S1130290F4008FE39FE10197F1F700C0000080E8CC
S11302A00E94F4000895892B21F480E80E94F40050
S11302B003C080EC0E94F40081E091E00E943701C9
S11302C080E80E94F40008951F93CF93DF930E9467
S11302D0460180E80E94F40011EB0E94460180E888
S11302E00E94F400C0E1D0E0812F0E94F800219721
S11302F0D9F780EC0E94F400C0E1D0E0812F0E9485
S1130300F8002197D9F72FEF84E39CE02150804037
S11303109040E1F700C000001F5F163BF1F680E853
S11303200E94F400C0E1D0E08FEF0E94F8008FE358
S11303309CE90197F1F700C000002197A9F780EC30
S11303400E94F400C0E1D0E08FEF0E94F8008FE338
S11303509CE90197F1F700C000002197A9F79FEFEE
S113036029E688E1915020408040E1F700C0000078
S11303700E94460183E80E94F40082E191E00E9419
S113038037019FEF27E883E1915020408040E1F757
S113039000C000000E944601DF91CF911F91089593
S11303A082EC0E94F4008DE191E00E9437012FEF6E
S11303B087E893E1215080409040E1F700C00000BD
S11303C081E090E00E945301089581E08093000150
S11303D00E94460189E291E00E94370189E80E9467
S11303E0F4008EE291E00E9437018FE80E94F4004D
S11303F08FED0E94F800089582E08093000110922E
S11304007701109276010E94460183E391E00E94F5
S1130410370180EC0E94F40084E491E00E943701EB
S1130420089580910001833018F00E94FC01089522
S11304300E94E501089583E0809300011092770102
S1130440109276010E94460185E591E00E943701F1
S113045080EC0E94F4008EE591E00E94370108953B
S113046084E08093000110927701109276010E943B
S1130470460183E691E00E94370180EC0E94F4007B
S11304808EE591E00E943701089585E08093000194
S113049010927701109276010E9446018CE691E059
S11304A00E94370180EC0E94F4008EE591E00E94E6
S11304B0370108951F920F920FB60F9211242F93B4
S11304C03F934F935F936F937F938F939F93AF93D8
S11304D0BF93EF93FF9380910001823070F080917D
S11304E0760190917701019690937701809376013C
S11304F08935924014F00E94E501FF91EF91BF917C
S1130500AF919F918F917F916F915F914F913F91A7
S11305102F910F900FBE0F901F901895ECE6F0E00E
S113052080818F608083E8E6F0E080818260808350
S113053008951F920F920FB60F9211242F923F929B
S11305402F933F934F935F936F937F938F939F93D7
S1130550AF93BF93EF93FF93CF93DF93CDB7DEB702
S11305602897DEBFCDBF309911C080E090E001969E
S1130570EFE9FFE03197F1F700C00000309BF7CFBF
S1130580459720F081E090E09A838983319911C0E6
S113059080E090E00196EFE9FFE03197F1F700C0C9
S11305A00000319BF7CF459720F081E090E09C83D9
S11305B08B83329920C080E090E00196EFE9FFE060
S11305C03197F1F700C00000329BF7CF85319105D8
S11305D090F020910001213029F081E090E09E8389
S11305E08D8309C0883E934008F4A3C081E090E065
S11305F09E838D839EC033991FC080E090E0019656
S1130600EFE9FFE03197F1F700C00000339BF7CF2B
S11306108531910588F020910001213029F081E095
S113062090E098878F8308C0883E9340B8F081E0BB
S113063090E098878F8312C080910001833009F481
S11306404DC028F4813051F0823041F168C08430CB
S113065009F44FC0853009F457C061C089819A817B
S1130660892B19F00E94D00114C08B819C81892BA5
S113067019F00E94D0010DC08D819E81892B19F043
S11306800E94FC0106C08F819885892B11F00E947D
S1130690FC01CE0101961C010E94530089819A81BC
S11306A0892B19F00E941B0214C08B819C81892B19
S11306B019F00E9430020DC08D819E81892B19F0A2
S11306C00E94110206C08F819885892B11F00E9427
S11306D04502FE0131961F010E9453008D819E81C7
S11306E0892B11F00E941102CE0101961C010E9477
S11306F053008D819E81892B11F00E941102FE010D
S113070031961F010E9453008D819E81892B11F027
S11307100E941102CE0101961C010E9453009FEF1A
S1130720E1EEF4E09150E040F040E1F700C0000059
S113073003C0339B62CF92CF28960FB6F894DEBFE6
S11307400FBECDBFDF91CF91FF91EF91BF91AF91DC
S11307509F918F917F916F915F914F913F912F91D5
S11307603F902F900F900FBE0F901F9018950E94EE
S1130770FC000E948E020E9464010E94E5017894AC
S1090780FFCFF894FFCF47
S1130786012020202020202020202020202020207E
S113079620004C43442052656164792100544D5332
S11307A6544D50205245432100534F433A00426171
S11307B6743A00537467732E2020202020204F7033
S11307C62E2058004261636B202020202020204FD9
S11307D6702E20590053657474696E677300426104
S11307E6636B004F7074696F6E2058004F707469A4
S10907F66F6E20590000A3
S9030000FC
