S01300004C43444669726D776172652E7372656301
S11300000C9434000C9449000C9449000C9449005D
S11300100C9449000C9449000C9449000C94490038
S11300200C9449000C9449000C9449000C94490028
S11300300C9449000C9449000C9449000C94490018
S11300400C9449000C9449000C9449000C94490008
S11300500C9449000C9449000C9449000C944900F8
S11300600C9449000C94490011241FBECFEFD8E032
S1130070DEBFCDBF11E0A0E0B1E0E2E6F3E002C0F4
S113008005900D92AA31B107D9F70E9494010C94FE
S1130090AF010C940000E4E6F0E080818F77808368
S11300A0ECEBF0E080818E7F8083E9EBF0E08081EF
S11300B08E7F808388E48093B800089584EA8093D7
S11300C0BC00ECEBF0E080818823ECF78091B90070
S11300D08EE48093BB0084E88093BC00ECEBF0E0FA
S11300E080818823ECF78091B90008958093BB0048
S11300F084E88093BC00ECEBF0E080818823ECF78B
S11301008091B90008951F93CF93DF93C82F162FC2
S11301100E945E00DC2FD07FDC60111119C08D2F8E
S11301200E9476008FE99FE00197F1F700C000007C
S11301308D2F887F0E9476008FE99FE00197F1F769
S113014000C000008C2F8295807FC82FCC601BC01C
S11301508D2F81600E9476008FE99FE00197F1F76F
S113016000C000008D2F8B7F81600E9476008FE994
S11301709FE00197F1F700C0000020E1C29FC00199
S11301801124C82FCD608C2F0E9476008FE99FE048
S11301900197F1F700C000008C2F8B7F0E9476003E
S11301A08FE99FE00197F1F700C0000084E9809394
S11301B0BC00DF91CF911F91089560E00E948300FD
S11301C0089561E00E94830008950E944B002FEF80
S11301D089EF90E0215080409040E1F700C000009A
S11301E082E00E94DD008FE19EE40197F1F700C0F8
S11301F0000082E00E94DD008FE99FE00197F1F7A3
S113020000C0000082E00E94DD008FE99FE00197BA
S1130210F1F700C0000088E20E94DD008CE00E943B
S1130220DD0081E00E94DD0082E00E94DD0008958F
S1130230CF93DF93EC018881882331F021960E94CB
S1130240E10089918111FBCFDF91CF91089581E085
S11302500E94DD008FE39FE10197F1F700C00000E9
S113026080E80E94DD0008951F93CF93DF930E94DE
S1130270270180E80E94DD0011EB0E94270180E83D
S11302800E94DD00C0E1D0E0812F0E94E1002197AF
S1130290D9F780EC0E94DD00C0E1D0E0812F0E94FC
S11302A0E1002197D9F72FEF86E191E121508040B9
S11302B09040E1F700C000001F5F163BF1F680E8B4
S11302C00E94DD00C0E1D0E08FEF0E94E1002FEF3B
S11302D086E791E0215080409040E1F700C00000A3
S11302E0219791F780EC0E94DD00C0E1D0E08FEF10
S11302F00E94E1002FEF86E791E02150804090407A
S1130300E1F700C00000219791F72FEF83ED90E310
S1130310215080409040E1F700C000000E94270176
S1130320DF91CF911F9108950E94E5000E9434014E
S113033080E091E00E94180180EC0E94DD0080E1E1
S113034091E00E9418012FEF89E698E12150804046
S11303509040E1F700C000000E942701FFCFF8940D
S1050360FFCFC9
S11303624D6164652062792056696E63656E74001E
S10D0372416E64204E69636B2100A4
S9030000FC
