S01300004C43444669726D776172652E7372656301
S11300000C9434000C9451000C9451000C94510045
S11300100C9451000C9451000C9451000C94510018
S11300200C9451000C9451000C9451000C94510008
S11300300C9451000C9451000C9451000C945100F8
S11300400C9451000C9451000C9451000C945100E8
S11300500C9451000C9451000C9451000C945100D8
S11300600C9451000C94510011241FBECFEFD8E022
S1130070DEBFCDBF11E0A0E0B1E0ECECF3E002C0E4
S113008005900D92AA31B107D9F721E0AAE1B1E0B8
S113009001C01D92A232B207E1F70E94BB010C9489
S11300A0E4010C940000E4E6F0E080818F77808323
S11300B0ECEBF0E080818E7F8083E9EBF0E08081DF
S11300C08E7F808388E48093B800089594EA9093A7
S11300D0BC00ECEBF0E090819923ECF79091B9002F
S11300E0880F8093BB0084E88093BC00ECEBF0E0C5
S11300F080818823ECF78091B90008958093BB0038
S113010084E88093BC00ECEBF0E080818823ECF77A
S11301108091B90008951F93CF93DF93D82F162FA2
S113012080911A010E946600C091200180911F01F4
S1130130C82B9D2F907F8C2F892B111105C0C09146
S11301401E01C095C82303C0C0911E01C82B8C2F6B
S11301500E947E008FE99FE00197F1F700C0000044
S113016080911F0180958C230E947E008FE99FE07F
S11301700197F1F700C00000C091200180911F0198
S1130180C82B20E1D29FC00111248C2B111105C072
S1130190C0911E01C095C82303C0C0911E01C82B85
S11301A08C2F0E947E008FE99FE00197F1F700C039
S11301B0000080911F0180958C230E947E008FE9AE
S11301C09FE00197F1F700C0000084E98093BC0030
S11301D0DF91CF911F91089560E00E948B000895F4
S11301E061E00E948B000895AF92CF92EF920F933B
S11301F060931E0140931F0120932001009321016D
S1130200E0921D01C0921B01A0921C0180931A016F
S11302100E9453002FEF89EF90E0215080409040DE
S1130220E1F700C0000082E00E94EC008FE19EE450
S11302300197F1F700C0000082E00E94EC008FE912
S11302409FE00197F1F700C0000082E00E94EC00FB
S11302508FE99FE00197F1F700C0000088E20E9457
S1130260EC008CE00E94EC0081E00E94EC0082E053
S11302700E94EC000F91EF90CF90AF900895CF9330
S1130280DF93EC018881882331F021960E94F000ED
S113029089918111FBCFDF91CF91089581E00E9474
S11302A0EC008FE39FE10197F1F700C0000080E8C4
S11302B00E94EC0008951F93CF93DF930E944E0198
S11302C080E80E94EC0011EB0E944E0180E80E943D
S11302D0EC00C0E1D0E0812F0E94F0002197D9F713
S11302E080EC0E94EC00C0E1D0E0812F0E94F0007D
S11302F02197D9F72FEF86E191E12150804090407A
S1130300E1F700C000001F5F163BF1F680E80E9491
S1130310EC00C0E1D0E08FEF0E94F0002FEF86E701
S113032091E0215080409040E1F700C00000219707
S113033091F780EC0E94EC00C0E1D0E08FEF0E94C6
S1130340F0002FEF86E791E0215080409040E1F7E4
S113035000C00000219791F72FEF83ED90E3215027
S113036080409040E1F700C000000E944E01DF9100
S1130370CF911F9108956894AA24A7F86894CC2477
S1130380C6F86894EE24E5F800E128E044E061E072
S113039087E20E94F4000E945B0180E091E00E94E9
S11303A03F0180EC0E94EC0080E191E00E943F015B
S11303B02FEF89E698E1215080409040E1F700C09A
S10F03C000000E944E01FFCFF894FFCF14
S11303CC4D6164652062792056696E63656E7400B4
S10D03DC416E64204E69636B21003A
S9030000FC
