:100000000C9434000C9451000C9451000C94510049
:100010000C9460020C9451000C9451000C9451000B
:100020000C9451000C9451000C9451000C9451000C
:100030000C9451000C9451000C9413020C94510038
:100040000C9451000C9451000C9451000C945100EC
:100050000C9451000C9451000C9451000C945100DC
:100060000C9451000C94510011241FBECFEFD8E026
:10007000DEBFCDBF11E0A0E0B1E0EEE8F7E002C0E6
:1000800005900D92A637B107D9F721E0A6E7B1E0B8
:1000900001C01D92A837B207E1F70E94BA030C9481
:1000A000C5030C9400001F93CF93DF93C82F162F26
:1000B00088E30E949103DC2FD07FDC60111119C00E
:1000C0008D2F0E94A9038FE99FE00197F1F700C0EF
:1000D00000008D2F887F0E94A9038FE99FE0019780
:1000E000F1F700C000008C2F8295807FC82FCC6074
:1000F0001BC08D2F81600E94A9038FE99FE00197AB
:10010000F1F700C000008D2F8B7F81600E94A90352
:100110008FE99FE00197F1F700C0000020E1C29F46
:10012000C0011124C82FCD608C2F0E94A9038FE934
:100130009FE00197F1F700C000008C2F8B7F0E9499
:10014000A9038FE99FE00197F1F700C000000E942A
:10015000B603DF91CF911F91089560E00E94530094
:10016000089561E00E945300089582E084BD9CE9F7
:1001700097BD80936E0085E085BD0E947E032FEFC2
:1001800089EF90E0215080409040E1F700C00000EE
:1001900082E00E94AD008FE19EE40197F1F700C07C
:1001A000000082E00E94AD008FE99FE00197F1F727
:1001B00000C0000082E00E94AD008FE99FE001973F
:1001C000F1F700C0000088E20E94AD008CE00E94C0
:1001D000AD0081E00E94AD0082E00E94AD00089574
:1001E000CF93DF93EC018881882331F021960E9420
:1001F000B10089918111FBCFDF91CF91089581E00A
:100200000E94AD008FE39FE10197F1F700C000006D
:1002100080E80E94AD000895892B21F480E80E94B7
:10022000AD0003C080EC0E94AD0081E091E00E942F
:10023000F00080E80E94AD0008951F93CF93DF93F4
:100240000E94FF0080E80E94AD0011EB0E94FF00B9
:1002500080E80E94AD00C0E1D0E0812F0E94B10093
:100260002197D9F780EC0E94AD00C0E1D0E0812F4A
:100270000E94B1002197D9F72FEF84E39CE0215031
:1002800080409040E1F700C000001F5F163BF1F690
:1002900080E80E94AD00C0E1D0E08FEF0E94B10085
:1002A0008FE39CE90197F1F700C000002197A9F7BF
:1002B00080EC0E94AD00C0E1D0E08FEF0E94B10061
:1002C0008FE39CE90197F1F700C000002197A9F79F
:1002D0009FEF29E688E1915020408040E1F700C07F
:1002E00000000E94FF0083E80E94AD0082E191E0DF
:1002F0000E94F0009FEF27E883E19150204080406A
:10030000E1F700C000000E94FF00DF91CF911F9134
:10031000089582EC0E94AD008DE191E00E94F00012
:100320002FEF87E893E1215080409040E1F700C033
:10033000000081E090E00E940C01089581E080932C
:1003400000010E94FF0089E291E00E94F00089E82C
:100350000E94AD008EE291E00E94F0008FE80E94C2
:10036000AD008FED0E94B100089582E080930001FE
:1003700010927701109276010E94FF0083E391E0D2
:100380000E94F00080EC0E94AD0084E491E00E94A5
:10039000F000089580910001833018F00E94B501AB
:1003A00008950E949E01089583E0809300011092B9
:1003B0007701109276010E94FF0085E591E00E948E
:1003C000F00080EC0E94AD008EE591E00E94F0000C
:1003D000089584E0809300011092770110927601D5
:1003E0000E94FF0083E691E00E94F00080EC0E94F2
:1003F000AD008EE591E00E94F000089585E08093C5
:10040000000110927701109276010E94FF008CE6A5
:1004100091E00E94F00080EC0E94AD008EE591E03A
:100420000E94F00008951F920F920FB60F921124B0
:100430002F933F934F935F936F937F938F939F93EC
:10044000AF93BF93EF93FF9380910001823070F0E0
:100450008091760190917701019690937701809336
:1004600076018935924014F00E949E01FF91EF9130
:10047000BF91AF919F918F917F916F915F914F91BC
:100480003F912F910F900FBE0F901F9018952F92B4
:100490003F92F1011182108213821282158214821E
:1004A000178216823F902F900895ECE6F0E080814D
:1004B0008F608083E8E6F0E0808182608083089529
:1004C0001F920F920FB60F9211242F923F922F93EB
:1004D0003F934F935F936F937F938F939F93AF93CC
:1004E000BF93EF93FF93CF93DF93CDB7DEB72897FA
:1004F000DEBFCDBF309911C080E090E00196EFE9FA
:10050000FFE03197F1F700C00000309BF7CF45972F
:1005100020F081E090E09A838983319911C080E0D6
:1005200090E00196EFE9FFE03197F1F700C000009D
:10053000319BF7CF459720F081E090E09C838B833F
:10054000329920C080E090E00196EFE9FFE031971A
:10055000F1F700C00000329BF7CF8531910590F094
:1005600020910001213029F081E090E09E838D836D
:1005700009C0883E934008F4A3C081E090E09E83C8
:100580008D839EC033991FC080E090E00196EFE913
:10059000FFE03197F1F700C00000339BF7CF8531C2
:1005A000910588F020910001213029F081E090E050
:1005B00098878F8308C0883E9340B8F081E090E030
:1005C00098878F8312C080910001833009F44DC059
:1005D00028F4813051F0823041F168C0843009F450
:1005E0004FC0853009F457C061C089819A81892B39
:1005F00019F00E94890114C08B819C81892B19F00C
:100600000E9489010DC08D819E81892B19F00E9465
:10061000B50106C08F819885892B11F00E94B50124
:10062000CE0101961C010E94470289819A81892B83
:1006300019F00E94D40114C08B819C81892B19F080
:100640000E94E9010DC08D819E81892B19F00E94C5
:10065000CA0106C08F819885892B11F00E94FE0186
:10066000FE0131961F010E9447028D819E81892BD8
:1006700011F00E94CA01CE0101961C010E9447029E
:100680008D819E81892B11F00E94CA01FE01319655
:100690001F010E9447028D819E81892B11F00E94CB
:1006A000CA01CE0101961C010E9447029FEFE1EEB4
:1006B000F4E09150E040F040E1F700C0000003C0DA
:1006C000339B62CF92CF28960FB6F894DEBF0FBE51
:1006D000CDBFDF91CF91FF91EF91BF91AF919F91EE
:1006E0008F917F916F915F914F913F912F913F90AB
:1006F0002F900F900FBE0F901F901895E4E6F0E03A
:1007000080818F778083ECEBF0E080818E7F808327
:10071000E9EBF0E080818E7F808388E48093B800ED
:10072000089594EA9093BC00ECEBF0E0908199235B
:10073000ECF79091B900880F8093BB0084E8809318
:10074000BC00ECEBF0E080818823ECF78091B900ED
:1007500008958093BB0084E88093BC00ECEBF0E04C
:1007600080818823ECF78091B900089584E9809313
:10077000BC000895F8940E94B5000E9455020E94A2
:0E0780001D010E949E017894FFCFF894FFCFD8
:10078E00012020202020202020202020202020207A
:10079E0020004C43442052656164792100544D532E
:1007AE00544D50205245432100534F433A0042616D
:1007BE00743A00537467732E2020202020204F702F
:1007CE002E2058004261636B202020202020204FD5
:1007DE00702E20590053657474696E677300426100
:1007EE00636B004F7074696F6E2058004F707469A0
:0607FE006F6E205900009F
:00000001FF
