:100000000C9434000C9451000C9451000C94510049
:100010000C9451000C9451000C9451000C9451001C
:100020000C9451000C9451000C9451000C9451000C
:100030000C9451000C9451000C948B000C945100C2
:100040000C9451000C9451000C9451000C945100EC
:100050000C9451000C9451000C9451000C945100DC
:100060000C9451000C94510011241FBECFEFD8E026
:10007000DEBFCDBF11E0A0E0B1E0E2E3F6E002C0F8
:1000800005900D92AE30B107D9F721E0AEE0B1E0B6
:1000900001C01D92A032B207E1F70E9400030C9448
:1000A00017030C940000E4E6F0E080818F778083F2
:1000B000ECEBF0E080818E7F8083E9EBF0E08081E3
:1000C0008E7F808388E48093B800089594EA9093AB
:1000D000BC00ECEBF0E090819923ECF79091B90033
:1000E000880F8093BB0084E88093BC00ECEBF0E0C9
:1000F00080818823ECF78091B90008958093BB003C
:1001000084E88093BC00ECEBF0E080818823ECF77E
:100110008091B90008951F920F920FB60F9211248B
:100120009F92AF92BF92CF92DF92EF92FF920F9386
:100130001F932F933F934F935F936F937F938F936F
:100140009F93AF93BF93CF93DF93EF93FF938091F0
:100150000E0190910F010197C9F400911D01C0910A
:100160001E018AE30E9466008C2F0E947E00CCEB69
:10017000D0E014E9188389E30E946600802F0E9472
:100180007E00188310920F0110920E0180911001D1
:10019000909111010196909311018093100180912B
:1001A000100190911101843691050CF4D5C0109284
:1001B0001101109210011092010110920001E8E06B
:1001C000F1E080E090E061E070E021913191232B3B
:1001D00089F42091000130910101AB01082E02C089
:1001E000440F551F0A94E2F7242B352B309301015D
:1001F0002093000101968330910539F78091020127
:1002000090910301892B49F48091000190910101A3
:100210008860909301018093000180910401909186
:100220000501892B49F480910001909101018061C1
:100230009093010180930001809106019091070144
:10024000892B49F480910001909101018062909383
:100250000101809300018091140190911501019793
:1002600049F4809100019091010180649093010113
:10027000809300018091120190911301019749F43C
:100280008091000190910101806890930101809319
:1002900000018BE30E9466008091000190910101B2
:1002A0000E947E0084E98093BC0056C0F701219132
:1002B00031917F0180911001909111012817390728
:1002C000E1F4809100019091010195010C2E02C092
:1002D000220F331F0A94E2F7822B932B9093010194
:1002E000809300018BE30E94660080910001909151
:1002F00001010E947E00F6019082F8012191319166
:100300008F01809110019091110128173907F1F4A4
:1003100080910001909101019E012D5F3F4FA50149
:1003200002C0440F551F2A95E2F7842B952B90931A
:100330000101809300018BE30E946600809100011F
:10034000909101010E947E00F60190822196C330B7
:10035000D10509F0ABCF17C00F2EF8E0EF2EF1E07A
:10036000FF2EF02D02E011E0C0E0D0E0AA24A3941B
:10037000B12C0F2EFCEBCF2ED12CF02D0F2EF4E94B
:100380009F2EF02D93CFFF91EF91DF91CF91BF91F1
:10039000AF919F918F917F916F915F914F913F911D
:1003A0002F911F910F91FF90EF90DF90CF90BF9012
:1003B000AF909F900F900FBE0F901F9018951F93B6
:1003C000CF93DF93D82F162F809116010E946600DD
:1003D000C0911C0180911B01C82B9D2F907F8C2FF9
:1003E000892B111105C0C0911A01C095C82303C003
:1003F000C0911A01C82B8C2F0E947E008FE99FE0CC
:100400000197F1F700C0000080911B0180958C23BB
:100410000E947E008FE99FE00197F1F700C0000085
:10042000C0911C0180911B01C82B20E1D29FC0010B
:1004300011248C2B111105C0C0911A01C095C8233D
:1004400003C0C0911A01C82B8C2F0E947E008FE937
:100450009FE00197F1F700C0000080911B0180959B
:100460008C230E947E008FE99FE00197F1F700C086
:10047000000084E98093BC00DF91CF911F91089523
:1004800060E00E94DF01089561E00E94DF010895AD
:10049000AF92CF92EF920F9360931A0140931B019A
:1004A00020931C0100931F01E0921901C0921701D3
:1004B000A0921801809316010E9453002FEF89EF3C
:1004C00090E0215080409040E1F700C0000082E0C1
:1004D0000E9440028FE19EE40197F1F700C0000006
:1004E00082E00E9440028FE99FE00197F1F700C08F
:1004F000000082E00E9440028FE99FE00197F1F73F
:1005000000C0000088E20E9440028CE00E9440028D
:1005100081E00E94400282E00E9440020F91EF9031
:10052000CF90AF90089581E00E9440028FE39FE159
:100530000197F1F700C0000080E80E944002089592
:100540001F93CF93DF930E94930280E80E944002A2
:1005500011EB0E94930280E80E944002C0E1D0E0CB
:10056000812F0E9444022197D9F780EC0E9440021B
:10057000C0E1D0E0812F0E9444022197D9F72FEFEC
:1005800086E191E1215080409040E1F700C00000F9
:100590001F5F163BF1F680E80E944002C0E1D0E008
:1005A0008FEF0E9444022FEF86E791E021508040B8
:1005B0009040E1F700C00000219791F780EC0E9485
:1005C0004002C0E1D0E08FEF0E9444022FEF86E7A7
:1005D00091E0215080409040E1F700C00000219759
:1005E00091F72FEF83ED90E3215080409040E1F7A9
:1005F00000C000000E949302DF91CF911F910895E7
:100600000E9453006894AA24A7F86894CC24C6F8E2
:100610006894EE24E5F800E128E044E061E088E336
:100620000E9448020E94A0020E949302EBCFF8941D
:02063000FFCFFA
:0E06320007006400640064006400640064005B
:00000001FF
