:100000000C9434000C9451000C9451000C94510049
:100010000C9451000C9451000C9451000C9451001C
:100020000C9451000C9451000C9451000C9451000C
:100030000C9451000C9451000C948B000C945100C2
:100040000C9451000C9451000C9451000C945100EC
:100050000C9451000C9451000C9451000C945100DC
:100060000C9451000C94510011241FBECFEFD8E026
:10007000DEBFCDBF11E0A0E0B1E0E4EEF5E002C0EC
:1000800005900D92A632B107D9F721E0A6E2B1E0C2
:1000900001C01D92AF32B207E1F70E94FE010C943D
:1000A000F0020C940000E4E6F0E080818F7780831A
:1000B000ECEBF0E080818E7F8083E9EBF0E08081E3
:1000C0008E7F808388E48093B800089594EA9093AB
:1000D000BC00ECEBF0E090819923ECF79091B90033
:1000E000880F8093BB0084E88093BC00ECEBF0E0C9
:1000F00080818823ECF78091B90008958093BB003C
:1001000084E88093BC00ECEBF0E080818823ECF77E
:100110008091B90008951F920F920FB60F9211248B
:100120009F92AF92BF92CF92DF92EF92FF920F9386
:100130001F932F933F934F935F936F937F938F936F
:100140009F93AF93BF93CF93DF93EF93FF938091F0
:10015000290190912A01019690932A018093290107
:100160008091290190912A01843691050CF4D5C023
:1001700010922A011092290110921901109218016F
:10018000E0E2F1E080E090E061E070E02191319107
:10019000232B89F42091180130911901AB01082E0D
:1001A00002C0440F551F0A94E2F7242B352B3093DD
:1001B00019012093180101968330910539F7809138
:1001C0001A0190911B01892B49F48091180190919B
:1001D00019018860909319018093180180911C0186
:1001E00090911D01892B49F480911801909119017A
:1001F0008061909319018093180180911E01909164
:100200001F01892B49F48091180190911901806296
:10021000909319018093180180912D0190912E01E6
:10022000019749F48091180190911901806490938D
:1002300019018093180180912B0190912C01019755
:1002400049F48091180190911901806890931901E7
:100250008093180180E20E946600809118019091BD
:1002600019010E947E0084E98093BC0056C0F7010A
:10027000219131917F018091290190912A012817C4
:100280003907E1F4809118019091190195010C2E24
:1002900002C0220F331F0A94E2F7822B932B909314
:1002A00019018093180180E20E9466008091180174
:1002B000909119010E947E00F6019082F80121912F
:1002C00031918F018091290190912A0128173907D6
:1002D000F1F480911801909119019E012D5F3F4F1B
:1002E000A50102C0440F551F2A95E2F7842B952BD8
:1002F000909319018093180180E20E94660080911A
:100300001801909119010E947E00F60190822196B9
:10031000C330D10509F0ABCF17C00F2EF0E2EF2E9E
:10032000F1E0FF2EF02D0AE111E0C0E0D0E0AA24B8
:10033000A394B12C0F2EFCEBCF2ED12CF02D0F2E31
:10034000F4E99F2EF02D93CFFF91EF91DF91CF91A4
:10035000BF91AF919F918F917F916F915F914F91DD
:100360003F912F911F910F91FF90EF90DF90CF90D1
:10037000BF90AF909F900F900FBE0F901F90189559
:10038000F89414BC15BC16BC89EF87BD85B5826096
:1003900085BD85B5826085BDEEE6F0E08081826036
:1003A000808378940895009719F00197A1F008953B
:1003B000E0E2F1E0DB018C9190E091838083119683
:1003C0008C91119790E09383828312968C9190E0A8
:1003D000958384830895EAE1F1E0DB018C9190E05C
:1003E0009183808311968C91119790E093838283FF
:1003F00012968C9190E09583848308950E94530017
:100400000E94C00162E171E080E090E00E94D301AF
:1004100066E271E081E090E00E94D3012FE78FE473
:1004200092E1215080409040E1F700C0000060E080
:1004300071E080E090E00E94D3016CE071E081E027
:1004400090E00E94D3012FE78FE492E12150804099
:100450009040E1F700C0000063E071E080E090E0D0
:100460000E94D30162E171E081E090E00E94D3013B
:100470002FE78FE492E1215080409040E1F700C0E7
:1004800000006FE071E080E090E00E94D30165E140
:1004900071E081E090E00E94D3012FE78FE492E1C8
:1004A000215080409040E1F700C00000C1E0D0E062
:1004B000D0932E01C0932D0110922C0110922B018C
:1004C00066E071E080E090E00E94D30169E071E0B5
:1004D00081E090E00E94D3012FE78FE492E1215068
:1004E00080409040E1F700C0000069E071E080E0EA
:1004F00090E00E94D30166E071E081E090E00E940C
:10050000D3012FE78FE492E1215080409040E1F742
:1005100000C0000065E171E080E090E00E94D3013E
:100520006FE071E081E090E00E94D3012FE78FE45B
:1005300092E1215080409040E1F700C0000062E16C
:1005400071E080E090E00E94D3016CE071E081E016
:1005500090E00E94D3012FE78FE492E12150804088
:100560009040E1F700C000006CE071E080E090E0B6
:100570000E94D30163E071E081E090E00E94D3012A
:100580002FE78FE492E1215080409040E1F700C0D6
:10059000000066E271E080E090E00E94D30162E139
:1005A00071E081E090E00E94D3012FE78FE492E1B7
:1005B000215080409040E1F700C0000010922E01D1
:1005C00010922D01D0932C01C0932B012FE78FE4C3
:1005D00092E1215080409040E1F700C0000012CF2E
:0405E000F894FFCFBD
:1005E4003E021E64646464006400646409000900DB
:1005F40064002002006400000700640064006400DA
:06060400640064006400C4
:00000001FF
