S01F0000496E737472756D656E745F436C75737465725F546573742E737265638C
S11300000C9434000C9451000C9451000C94510045
S11300100C9451000C9451000C9451000C94510018
S11300200C9451000C9451000C9451000C94510008
S11300300C9451000C9451000C948B000C945100BE
S11300400C9451000C9451000C9451000C945100E8
S11300500C9451000C9451000C9451000C945100D8
S11300600C9451000C94510011241FBECFEFD8E022
S1130070DEBFCDBF11E0A0E0B1E0EAEFF6E002C0E0
S113008005900D92AC31B107D9F721E0ACE1B1E0B4
S113009001C01D92AD32B207E1F70E9437030C9400
S11300A07B030C940000E4E6F0E080818F7780838A
S11300B0ECEBF0E080818E7F8083E9EBF0E08081DF
S11300C08E7F808388E48093B800089594EA9093A7
S11300D0BC00ECEBF0E090819923ECF79091B9002F
S11300E0880F8093BB0084E88093BC00ECEBF0E0C5
S11300F080818823ECF78091B90008958093BB0038
S113010084E88093BC00ECEBF0E080818823ECF77A
S11301108091B90008951F920F920FB60F92112487
S11301209F92AF92BF92CF92DF92EF92FF920F9382
S11301301F932F933F934F935F936F937F938F936B
S11301409F93AF93BF93CF93DF93EF93FF938091EC
S11301501F019091200101969093200180931F012B
S113016080911F0190912001843691050CF4D5C033
S11301701092200110921F011092010110920001AF
S1130180E8E0F1E080E090E061E070E021913191FD
S1130190232B89F42091000130910101AB01082E39
S11301A002C0440F551F0A94E2F7242B352B3093D9
S11301B001012093000101968330910539F7809164
S11301C0020190910301892B49F4809100019091DF
S11301D001018860909301018093000180910401E2
S11301E090910501892B49F48091000190910101BE
S11301F080619093010180930001809106019091A8
S11302000701892B49F480910001909101018062DA
S11302109093010180930001809123019091240126
S1130220019749F4809100019091010180649093B9
S11302300101809300018091210190912201019795
S113024049F480910001909101018068909301012B
S1130250809300018BE30E946600809100019091DD
S113026001010E947E0084E98093BC0056C0F7011E
S1130270219131917F0180911F01909120012817D4
S11302803907E1F4809100019091010195010C2E50
S113029002C0220F331F0A94E2F7822B932B909310
S11302A00101809300018BE30E94660080910001AC
S11302B0909101010E947E00F6019082F801219143
S11302C031918F0180911F019091200128173907E6
S11302D0F1F480910001909101019E012D5F3F4F47
S11302E0A50102C0440F551F2A95E2F7842B952BD4
S11302F090930101809300018BE30E94660080913A
S11303000001909101010E947E00F60190822196E5
S1130310C330D10509F0ABCF17C00F2EF8E0EF2E94
S1130320F1E0FF2EF02D02E011E0C0E0D0E0AA24BD
S1130330A394B12C0F2EFCEBCF2ED12CF02D0F2E2D
S1130340F4E99F2EF02D93CFFF91EF91DF91CF91A0
S1130350BF91AF919F918F917F916F915F914F91D9
S11303603F912F911F910F91FF90EF90DF90CF90CD
S1130370BF90AF909F900F900FBE0F901F90189555
S1130380009719F00197A1F00895E8E0F1E0DB018E
S11303908C9190E09183808311968C91119790E0D9
S11303A09383828312968C9190E09583848308953D
S11303B0E2E0F1E0DB018C9190E09183808311967F
S11303C08C91119790E09383828312968C9190E0A4
S11303D09583848308950F931F93CF93DF93C82F3E
S11303E0092F8AE30E9466008C2F0E947E00CCEBCA
S11303F0D0E014E9188389E30E946600802F0E94EC
S11304007E001883DF91CF911F910F9108951F9360
S1130410CF93DF93D82F162F809125010E94660079
S1130420C0912B0180912A01C82B9D2F907F8C2F86
S1130430892B111105C0C0912901C095C82303C09F
S1130440C0912901C82B8C2F0E947E0087E893E17C
S11304500197F1F700C0000080912A0180958C2358
S11304600E947E0087E893E10197F1F700C0000045
S1130470C0912B0180912A01C82B20E1D29FC00199
S113048011248C2B111105C0C0912901C095C823DA
S113049003C0C0912901C82B8C2F0E947E0087E8DD
S11304A093E10197F1F700C0000080912A01809543
S11304B08C230E947E0087E893E10197F1F700C046
S11304C0000084E98093BC00DF91CF911F910895CF
S11304D060E00E940702089561E00E940702089507
S11304E0AF92CF92EF920F936093290140932A0128
S11304F020932B0100932C01E0922801C092260145
S1130500A0922701809325010E9453002FE788E3DE
S113051091E0215080409040E1F700C0000082E06B
S11305200E94680287EA91E60197F1F700C0000093
S113053082E00E94680287E893E10197F1F700C026
S1130540000082E00E94680287E893E10197F1F7D6
S113055000C0000088E20E9468028CE00E946802E9
S113056081E00E94680282E00E9468020F91EF908D
S1130570CF90AF900895CF93DF93EC0188818823C7
S113058031F021960E946C0289918111FBCFDF9199
S1130590CF91089581E00E9468028FE097E201976D
S11305A0F1F700C0000080E80E94680208951F93DC
S11305B0CF93DF930E94CA0280E80E94680211EB85
S11305C00E94CA0280E80E946802C0E1D0E0812F44
S11305D00E946C022197D9F780EC0E946802C0E166
S11305E0D0E0812F0E946C022197D9F72FEB8CE584
S11305F095E1215080409040E1F700C000001F5F6A
S1130600163BF1F680E80E946802C0E1D0E08FEF6B
S11306100E946C022FEB84ED91E0215080409040C9
S1130620E1F700C00000219791F780EC0E94680276
S1130630C0E1D0E08FEF0E946C022FEB84ED91E0DB
S1130640215080409040E1F700C00000219791F7CD
S11306502FEF88E09DE3215080409040E1F700C0F7
S113066000000E94CA02DF91CF911F9108950E9459
S113067053006894AA24A7F86894CC24C6F8689414
S1130680EE24E5F800E128E044E061E088E30E941C
S113069070020E94D7028EE091E00E94BB0280ECBF
S11306A00E94680284E191E00E94BB022FE784E883
S11306B09EE1215080409040E1F700C000000E947C
S11306C0CA02C1E0D0E08FEF9FEF0E94EB01D0930C
S11306D02401C0932301D0932201C09321016CE132
S11306E071E080E090E00E94C0016CE171E0CE0115
S10D06F00E94C001E8CFF894FFCF88
S11306FA07006400640064006400640064004865E0
S10F070A6C6C6F004148484848480000EF
S9030000FC
