:100000000C9434000C9451000C9451000C94510049
:100010000C9451000C9451000C9451000C9451001C
:100020000C9451000C9451000C9451000C948F00CE
:100030000C9451000C9451000C9451000C945100FC
:100040000C9451000C9451000C9451000C945100EC
:100050000C9451000C9451000C9451000C945100DC
:100060000C9451000C94510011241FBECFEFD8E026
:10007000DEBFCDBF11E0A0E0B1E0E0E3F6E002C0FA
:1000800005900D92AE33B107D9F721E0AEE3B1E0B0
:1000900001C01D92A434B207E1F70E94C9010C947B
:1000A00016030C940000E4E6F0E080818F778083F3
:1000B000ECEBF0E080818E7F8083E9EBF0E08081E3
:1000C0008E7F808388E48093B800089594EA9093AB
:1000D000BC00ECEBF0E090819923ECF79091B90033
:1000E000880F8093BB0084E88093BC00ECEBF0E0C9
:1000F00080818823ECF78091B90008958093BB003C
:1001000084E88093BC00ECEBF0E080818823ECF77E
:100110008091B900089584E98093BC0008951F92EE
:100120000F920FB60F921124CF92DF92EF92FF92AF
:100130000F931F932F933F934F935F936F937F93EF
:100140008F939F93AF93BF93CF93DF93EF93FF93DF
:1001500080913F018130A1F48AE30E946600809182
:1001600042010E947E000E948B0089E30E9466008B
:10017000809143010E947E000E948B0010923F01FB
:1001800080913E018F5F80933E0180913E018436D5
:1001900008F493C010923E0110920001E4E0F1E0F7
:1001A00080E090E061E070E0219121110CC040916D
:1001B00000019B01082E02C0220F331F0A94E2F7B0
:1001C000242B2093000101968330910569F78091DB
:1001D0000101811105C080910001886080930001B8
:1001E00080910201811105C080910001806180939E
:1001F000000180910301811105C08091000180629E
:100200008093000180914101813029F480910001A7
:1002100080648093000180914001813029F48091B5
:1002200000018068809300018BE30E94660080914A
:1002300000010E947E000E948B003FC0F701919157
:100240007F0180913E01981315C020910001C601E5
:100250000C2E02C0880F991F0A94E2F7822B80931C
:1002600000018BE30E946600809100010E947E00E5
:100270000E948B00F80191918F0180913E019813AB
:1002800017C020910001CE010396A60102C0440FC1
:10029000551F8A95E2F7CA01822B809300018BE3F8
:1002A0000E946600809100010E947E000E948B00E7
:1002B0002196C330D10511F60EC00F2EF4E0EF2EBB
:1002C000F1E0FF2EF02D01E011E0C0E0D0E0CC2401
:1002D000C394D12CB3CFFF91EF91DF91CF91BF9118
:1002E000AF919F918F917F916F915F914F913F91CE
:1002F0002F911F910F91FF90EF90DF90CF900F9073
:100300000FBE0F901F901895F89410928000E1E8AE
:10031000F0E0108210928500109284008FEC97E03C
:100320009093890080938800808188608083808199
:1003300081608083EFE6F0E0808182608083789442
:100340000895DC01E4E0F1E08C91808312968C91B9
:100350001297818314968C9182830895DC01E1E0E9
:10036000F1E08C91808312968C9112978183149680
:100370008C91828308958093410108958093400178
:100380000895809343019093420181E080933F015F
:1003900008950E9453000E9484018FEF9FEF0E94F6
:1003A000C1018DE091E00E94A1018DE091E00E94E9
:1003B000AE0181E00E94BB0181E00E94BE01EE24FB
:1003C000E394F12C2FE78FE492E12150804090409C
:1003D000E1F700C000008FEF90E00E94C1012FE71D
:1003E0008FE492E1215080409040E1F700C000008E
:1003F00080E09FEF0E94C1012FE78FE492E121503E
:1004000080409040E1F700C0000000E010E0CFEF36
:10041000DFEFC701002E02C0880F991F0A94E2F790
:1004200080959095C823D923CE010E94C1012FE762
:100430008AE196E0215080409040E1F700C0000042
:100440000F5F1F4F0031110521F700E110E0C701D8
:10045000002E02C0880F991F0A94E2F7C82BD92BEF
:10046000CE010E94C1012FE78AE196E02150804031
:100470009040E1F700C000000150110940F781E30E
:1004800091E00E94A1018DE091E00E94AE018FE712
:100490009FE422E1815090402040E1F700C000003D
:1004A00087E091E00E94A10185E291E00E94AE0107
:1004B0008FE79FE422E1815090402040E1F700C0A7
:1004C000000083E191E00E94A10181E391E00E949C
:1004D000AE018FE79FE422E1815090402040E1F798
:1004E00000C000008BE291E00E94A10187E391E04F
:1004F0000E94AE018FE79FE422E1815090402040AE
:10050000E1F700C0000081E00E94BB0180E00E9492
:10051000BE0189E191E00E94A1018FE191E00E947A
:10052000AE018FE79FE422E1815090402040E1F747
:1005300000C000008FE191E00E94A10189E191E0FB
:100540000E94AE018FE79FE422E18150904020405D
:10055000E1F700C0000087E391E00E94A1018BE277
:1005600091E00E94AE018FE79FE422E1815090402C
:100570002040E1F700C0000081E391E00E94A1016A
:1005800085E291E00E94AE018FE79FE422E1815075
:1005900090402040E1F700C0000085E291E00E9419
:1005A000A10183E191E00E94AE018FE79FE422E187
:1005B000815090402040E1F700C000008DE091E0C4
:1005C0000E94A10181E391E00E94AE018FE79FE4C8
:1005D00022E1815090402040E1F700C0000080E01F
:1005E0000E94BB0181E00E94BE018FE79FE422E1EF
:1005F000815090402040E1F700C0000081E00E945F
:10060000BB0181E00E94BE018DE091E00E94A1014A
:100610008DE091E00E94AE018FE79FE422E18150DE
:1006200090402040E1F700C00000CCCEF894FFCF0E
:100630000764646464646402001E003E00000000FD
:100640000000006400640064000000640064006452
:1006500000640000000000090009006400000000C0
:0E066000000200000020000000000064000006
:00000001FF
