:100000000C9434000C9451000C9451000C94510049
:100010000C9451000C9451000C9451000C9451001C
:100020000C9451000C9451000C9451000C94DC0081
:100030000C9451000C9451000C9451000C945100FC
:100040000C9451000C9451000C9451000C945100EC
:100050000C9451000C9451000C9451000C945100DC
:100060000C9451000C94510011241FBECFEFD8E026
:10007000DEBFCDBF11E0A0E0B1E0EEE2F8E002C0EB
:1000800005900D92A830B107D9F721E0A8E0B1E0C2
:1000900001C01D92A731B207E1F70E94D9020C946A
:1000A00015040C940000E4E6F0E080818F778083F3
:1000B000ECEBF0E080818E7F8083E9EBF0E08081E3
:1000C0008E7F808388E48093B800089594EA9093AB
:1000D000BC00ECEBF0E090819923ECF79091B90033
:1000E000880F8093BB0084E88093BC00ECEBF0E0C9
:1000F00080818823ECF78091B90008958093BB003C
:1001000084E88093BC00ECEBF0E080818823ECF77E
:100110008091B900089584E98093BC0008958BE331
:100120000E946600809100010E947E000E948B0068
:10013000089590910001987F892B809300010E947F
:100140008F00089520910001277C38E0839FC00133
:100150001124822B809300010E948F0008959091BA
:10016000000180FB97F9909300010E948F00089591
:10017000209100012F7B30E4839FC0011124822B4A
:10018000809300010E948F00089580930E01909348
:100190000D018AE30E94660080910D010E947E009D
:1001A0000E948B0089E30E94660080910E010E94EC
:1001B0007E000E948B0008951F920F920FB60F923F
:1001C0001124CF92DF92EF92FF920F931F932F9300
:1001D0003F934F935F936F937F938F939F93AF93CF
:1001E000BF93CF93DF93EF93FF9380910901813009
:1001F000A1F48AE30E94660080910D010E947E00B6
:100200000E948B0089E30E94660080910E010E948B
:100210007E000E948B0010920901809108018F5F7F
:100220008093080180910801843608F47BC0109205
:10023000080181E090910401911180E09091050105
:10024000911101C0826090910601911101C08460FA
:1002500090910101911101C088609091020191116A
:1002600001C0806190910301911101C0806280936F
:10027000000190910B01913019F48064809300018A
:1002800080910A01813029F4809100018068809377
:1002900000018BE30E946600809100010E947E00B5
:1002A0000E948B003FC0F70191917F01809108016E
:1002B000981315C020910001C6010C2E02C0880FB2
:1002C000991F0A94E2F7822B809300018BE30E942E
:1002D0006600809100010E947E000E948B00F80160
:1002E00091918F0180910801981317C0CE01039658
:1002F000960102C0220F331F8A95E2F7C90190913F
:100300000001892B809300018BE30E94660080919D
:1003100000010E947E000E948B002196C330D1050F
:1003200011F60EC00F2EF4E0EF2EF1E0FF2EF02DAF
:1003300001E011E0C0E0D0E0CC24C394D12CB3CFD5
:10034000FF91EF91DF91CF91BF91AF919F918F91ED
:100350007F916F915F914F913F912F911F910F91DD
:10036000FF90EF90DF90CF900F900FBE0F901F90F7
:1003700018951F93CF93DF93D82F162F80910F01DD
:100380000E946600C091150180911401C82B9D2F19
:10039000907F8C2F892B111105C0C0911301C0953E
:1003A000C82303C0C0911301C82B8C2F0E947E006C
:1003B00087E893E10197F1F700C0000080911401F4
:1003C00080958C230E947E0087E893E10197F1F7E6
:1003D00000C00000C091150180911401C82B20E1DC
:1003E000D29FC00111248C2B111105C0C0911301A3
:1003F000C095C82303C0C0911301C82B8C2F0E9445
:100400007E0087E893E10197F1F700C0000080913A
:10041000140180958C230E947E0087E893E1019768
:10042000F1F700C000000E948B00DF91CF911F9177
:10043000089560E00E94B901089561E00E94B90149
:100440000895AF92CF92EF920F9360931301409370
:1004500014012093150100931601E0921201C0923D
:100460001001A092110180930F010E9453002FE709
:1004700088E391E0215080409040E1F700C0000007
:1004800082E00E94190287EA91E60197F1F700C025
:10049000000082E00E94190287E893E10197F1F7DA
:1004A00000C0000082E00E94190287E893E10197F2
:1004B000F1F700C0000088E20E9419028CE00E945F
:1004C000190281E00E94190282E00E9419020F9134
:1004D000EF90CF90AF90089581E00E9419028FE0D5
:1004E00097E20197F1F700C0000080E80E9419022E
:1004F00008951F93CF93DF930E946C0280E80E94BF
:10050000190211EB0E946C0280E80E941902C0E1FE
:10051000D0E0812F0E941D022197D9F780EC0E9424
:100520001902C0E1D0E0812F0E941D022197D9F766
:100530002FEB8CE595E1215080409040E1F700C021
:1005400000001F5F163BF1F680E80E941902C0E12F
:10055000D0E08FEF0E941D022FEB84ED91E021503F
:1005600080409040E1F700C00000219791F780ECB7
:100570000E941902C0E1D0E08FEF0E941D022FEB14
:1005800084ED91E0215080409040E1F700C00000F0
:10059000219791F72FEF88E09DE321508040904014
:1005A000E1F700C000000E946C02DF91CF911F9123
:1005B00008950E9453006894AA24A7F86894CC2454
:1005C000C6F86894EE24E5F800E128E044E061E034
:1005D00088E30E9421020E9479020E946C028FEF40
:1005E0009FEF0E94C50087E00E94990087E00E946B
:1005F000A20081E00E94AF0081E00E94B800EE24DA
:10060000E394F12C2FE78FE492E121508040904059
:10061000E1F700C000008FEF90E00E94C5002FE7D7
:100620008FE492E1215080409040E1F700C000004B
:1006300080E09FEF0E94C5002FE78FE492E12150F8
:1006400080409040E1F700C0000000E010E0CFEFF4
:10065000DFEFC701002E02C0880F991F0A94E2F74E
:1006600080959095C823D923CE010E94C5002FE71D
:100670008AE196E0215080409040E1F700C0000000
:100680000F5F1F4F0031110521F700E110E0C70196
:10069000002E02C0880F991F0A94E2F7C82BD92BAD
:1006A000CE010E94C5002FE78AE196E021508040EC
:1006B0009040E1F700C000000150110940F78FE7BA
:1006C0009FE422E1815090402040E1F700C000000B
:1006D00080E00E94AF008FE79FE422E181509040CC
:1006E0002040E1F700C0000080E00E94B8008FE7E2
:1006F0009FE422E1815090402040E1F700C00000DB
:1007000081E00E94AF008FE79FE422E1815090409A
:100710002040E1F700C0000081E00E94B8008FE7B0
:100720009FE422E1815090402040E1F700C00000AA
:1007300083E00E9499008FE79FE422E1815090407E
:100740002040E1F700C0000080E00E9499008FE7A0
:100750009FE422E1815090402040E1F700C000007A
:1007600085E00E9499008FE79FE422E1815090404C
:100770002040E1F700C0000086E00E9499008FE76A
:100780009FE422E1815090402040E1F700C000004A
:1007900087E00E9499008FE79FE422E1815090401A
:1007A0002040E1F700C0000083E00E94A2008FE734
:1007B0009FE422E1815090402040E1F700C000001A
:1007C00080E00E94A2008FE79FE422E181509040E8
:1007D0002040E1F700C0000085E00E94A2008FE702
:1007E0009FE422E1815090402040E1F700C00000EA
:1007F00086E00E94A2008FE79FE422E181509040B2
:100800002040E1F700C0000087E00E94A2008FE7CF
:100810009FE422E1815090402040E1F700C00000B9
:0E0820000E9479020E946C02EDCEF894FFCF88
:08082E00FF646464646464006B
:00000001FF
