:100000000C9434000C9451000C9451000C94510049
:100010000C9451000C9451000C9451000C9451001C
:100020000C9451000C9451000C9451000C9451000C
:100030000C9451000C9451000C948B000C945100C2
:100040000C9451000C9451000C9451000C945100EC
:100050000C9451000C9451000C9451000C945100DC
:100060000C9451000C94510011241FBECFEFD8E026
:10007000DEBFCDBF11E0A0E0B1E0E2EEF4E002C0EF
:1000800005900D92AA31B107D9F721E0AAE1B1E0BC
:1000900001C01D92AF31B207E1F70E94B9010C9483
:1000A0006F020C940000E4E6F0E080818F7780839B
:1000B000ECEBF0E080818E7F8083E9EBF0E08081E3
:1000C0008E7F808388E48093B800089594EA9093AB
:1000D000BC00ECEBF0E090819923ECF79091B90033
:1000E000880F8093BB0084E88093BC00ECEBF0E0C9
:1000F00080818823ECF78091B90008958093BB003C
:1001000084E88093BC00ECEBF0E080818823ECF77E
:100110008091B90008951F920F920FB60F9211248B
:100120009F92AF92BF92CF92DF92EF92FF920F9386
:100130001F932F933F934F935F936F937F938F936F
:100140009F93AF93BF93CF93DF93EF93FF938091F0
:100150001D0190911E01019690931E0180931D0137
:1001600080911D0190911E01843691050CF46BC0A5
:1001700010921E0110921D0110920D0110920C019F
:1001800080E20E94660080910C0190910D010E9416
:100190007E0084E98093BC0056C0F7012191319123
:1001A0007F0180911D0190911E0128173907E1F40C
:1001B00080910C0190910D0195010C2E02C0220F2F
:1001C000331F0A94E2F7822B932B90930D018093B7
:1001D0000C0180E20E94660080910C0190910D015B
:1001E0000E947E00F6019082F801219131918F01E9
:1001F00080911D0190911E0128173907F1F480911B
:100200000C0190910D019E012B5F3F4FA50102C093
:10021000440F551F2A95E2F7842B952B90930D01DF
:1002200080930C0180E20E94660080910C01909105
:100230000D010E947E00F60190822196C330D10507
:1002400009F0ABCF17C00F2EF4E1EF2EF1E0FF2E37
:10025000F02D0EE011E0C0E0D0E0AA24A394B12C70
:100260000F2EFCEBCF2ED12CF02D0F2EF4E99F2E6C
:10027000F02D93CFFF91EF91DF91CF91BF91AF918F
:100280009F918F917F916F915F914F913F912F91AE
:100290001F910F91FF90EF90DF90CF90BF90AF90A4
:1002A0009F900F900FBE0F901F90189582E084BD15
:1002B00096E097BDEEE6F0E08083789484E085BD1B
:1002C00014BC15BC16BC8FE987BD85B5826085BDA1
:1002D00085B5816085BD8081826080837894089532
:1002E000009719F00197A1F00895E4E1F1E0DB0136
:1002F0008C9190E09183808311968C91119790E07E
:100300009383828312968C9190E0958384830895E1
:10031000EEE0F1E0DB018C9190E091838083119617
:100320008C91119790E09383828312968C9190E048
:100330009583848308950F931F93CF93DF93C82FE2
:10034000092F0E94530082E70E9466008C2F0E94B2
:100350007E00CCEBD0E014E9188384E70E946600AD
:10036000802F0E947E001883DF91CF911F910F9103
:1003700008950E9453000E94560180E090E00E9480
:100380009B012FEF89E698E1215080409040E1F7F2
:1003900000C000008AEA9AEA0E949B012FEF89E6DA
:1003A00098E1215080409040E1F700C0000085E5D1
:1003B00095E50E949B012FEF89E698E1215080404E
:1003C0009040E1F700C00000C0E0D0E06AE171E0D9
:1003D000CE010E9470012FEF85EA9EE021508040FF
:1003E0009040E1F700C0000060E071E0CE010E94A3
:1003F00070012FEF85EA9EE0215080409040E1F7A8
:1004000000C000006AE171E0CE010E9470012FEF90
:1004100085EA9EE0215080409040E1F700C0000056
:1004200069E071E0CE010E9470012FEF85EA9EE045
:10043000215080409040E1F700C0000066E071E08C
:10044000CE010E9470012FEF85EA9EE0215080408E
:100450009040E1F700C0000063E071E0CE010E942F
:1004600070012FEF85EA9EE0215080409040E1F737
:1004700000C000006AE171E0CE010E947001219687
:10048000C230D10509F0A2CF86E70E94660081E064
:100490000E947E002FEF89E698E121508040904035
:1004A000E1F700C0000083E00E947E002FEF89E6A4
:1004B00098E1215080409040E1F700C0000082E0C8
:1004C0000E947E002FEF89E698E121508040904005
:1004D000E1F700C0000080E00E947E004ACFF8945F
:0204E000FFCF4C
:1004E200FFFFFF0000FF00FF00FF000007006400A5
:0A04F200640064006400640064000C
:00000001FF
