:100000000C9434000C9451000C9451000C94510049
:100010000C9451000C9451000C9451000C9451001C
:100020000C9451000C9451000C9451000C9451000C
:100030000C9451000C9451000C948B000C945100C2
:100040000C9451000C9451000C9451000C945100EC
:100050000C9451000C9451000C9451000C945100DC
:100060000C9451000C94510011241FBECFEFD8E026
:10007000DEBFCDBF11E0A0E0B1E0EEE8F6E002C0E7
:1000800005900D92AC31B107D9F721E0ACE1B1E0B8
:1000900001C01D92AA32B207E1F70E940C030C9432
:1000A00045030C940000E4E6F0E080818F778083C4
:1000B000ECEBF0E080818E7F8083E9EBF0E08081E3
:1000C0008E7F808388E48093B800089594EA9093AB
:1000D000BC00ECEBF0E090819923ECF79091B90033
:1000E000880F8093BB0084E88093BC00ECEBF0E0C9
:1000F00080818823ECF78091B90008958093BB003C
:1001000084E88093BC00ECEBF0E080818823ECF77E
:100110008091B90008951F920F920FB60F9211248B
:100120009F92AF92BF92CF92DF92EF92FF920F9386
:100130001F932F933F934F935F936F937F938F936F
:100140009F93AF93BF93CF93DF93EF93FF938091F0
:100150001C0190911D01019690931D0180931C013B
:1001600080911C0190911D01843691050CF4D5C03D
:1001700010921D0110921C011092010110920001B9
:10018000E8E0F1E080E090E061E070E02191319101
:10019000232B89F42091000130910101AB01082E3D
:1001A00002C0440F551F0A94E2F7242B352B3093DD
:1001B00001012093000101968330910539F7809168
:1001C000020190910301892B49F4809100019091E3
:1001D00001018860909301018093000180910401E6
:1001E00090910501892B49F48091000190910101C2
:1001F00080619093010180930001809106019091AC
:100200000701892B49F480910001909101018062DE
:100210009093010180930001809120019091210130
:10022000019749F4809100019091010180649093BD
:1002300001018093000180911E0190911F0101979F
:1002400049F480910001909101018068909301012F
:10025000809300018BE30E946600809100019091E1
:1002600001010E947E0084E98093BC0056C0F70122
:10027000219131917F0180911C0190911D012817DE
:100280003907E1F4809100019091010195010C2E54
:1002900002C0220F331F0A94E2F7822B932B909314
:1002A0000101809300018BE30E94660080910001B0
:1002B000909101010E947E00F6019082F801219147
:1002C00031918F0180911C0190911D0128173907F0
:1002D000F1F480910001909101019E012D5F3F4F4B
:1002E000A50102C0440F551F2A95E2F7842B952BD8
:1002F00090930101809300018BE30E94660080913E
:100300000001909101010E947E00F60190822196E9
:10031000C330D10509F0ABCF17C00F2EF8E0EF2E98
:10032000F1E0FF2EF02D02E011E0C0E0D0E0AA24C1
:10033000A394B12C0F2EFCEBCF2ED12CF02D0F2E31
:10034000F4E99F2EF02D93CFFF91EF91DF91CF91A4
:10035000BF91AF919F918F917F916F915F914F91DD
:100360003F912F911F910F91FF90EF90DF90CF90D1
:10037000BF90AF909F900F900FBE0F901F90189559
:100380000F931F93CF93DF93C82F092F8AE30E9407
:1003900066008C2F0E947E00CCEBD0E014E918831D
:1003A00089E30E946600802F0E947E001883DF91FF
:1003B000CF911F910F9108951F93CF93DF93D82F63
:1003C000162F809122010E946600C0912801809121
:1003D0002701C82B9D2F907F8C2F892B111105C0D1
:1003E000C0912601C095C82303C0C0912601C82B27
:1003F0008C2F0E947E0087E893E10197F1F700C0FF
:1004000000008091270180958C230E947E0087E860
:1004100093E10197F1F700C00000C091280180919D
:100420002701C82B20E1D29FC00111248C2B111170
:1004300005C0C0912601C095C82303C0C091260104
:10044000C82B8C2F0E947E0087E893E10197F1F77B
:1004500000C000008091270180958C230E947E00BF
:1004600087E893E10197F1F700C0000084E98093E9
:10047000BC00DF91CF911F91089560E00E94DC01E4
:10048000089561E00E94DC010895AF92CF92EF924F
:100490000F93609326014093270120932801009336
:1004A0002901E0922501C0922301A09224018093AA
:1004B00022010E9453002FE788E391E02150804001
:1004C0009040E1F700C0000082E00E943D0287EA10
:1004D00091E60197F1F700C0000082E00E943D0222
:1004E00087E893E10197F1F700C0000082E00E94E5
:1004F0003D0287E893E10197F1F700C0000088E230
:100500000E943D028CE00E943D0281E00E943D027B
:1005100082E00E943D020F91EF90CF90AF9008953E
:10052000CF93DF93EC018881882331F021960E94DC
:10053000410289918111FBCFDF91CF91089581E034
:100540000E943D028FE097E20197F1F700C00000A2
:1005500080E80E943D0208951F93CF93DF930E948D
:100560009F0280E80E943D0211EB0E949F0280E8FA
:100570000E943D02C0E1D0E0812F0E9441022197FC
:10058000D9F780EC0E943D02C0E1D0E0812F0E94AB
:1005900041022197D9F72FEB8CE595E1215080405E
:1005A0009040E1F700C000001F5F163BF1F680E8C5
:1005B0000E943D02C0E1D0E08FEF0E9441022FEB8C
:1005C00084ED91E0215080409040E1F700C00000B0
:1005D000219791F780EC0E943D02C0E1D0E08FEFBF
:1005E0000E9441022FEB84ED91E021508040904029
:1005F000E1F700C00000219791F72FEF88E09DE31D
:10060000215080409040E1F700C000000E949F020E
:10061000DF91CF911F9108950E945300C1E0D0E077
:100620008FEF9FEF0E94C001D0932101C093200162
:10063000D0931F01C0931E016894AA24A7F8689460
:10064000CC24C6F86894EE24E5F800E128E044E004
:1006500061E088E30E9445020E94AC028EE091E0D6
:100660000E94900280EC0E943D0284E191E00E9491
:1006700090022FE784E89EE1215080409040E1F70E
:0E06800000C000000E949F02CBCFF894FFCF75
:10068E000700640064006400640064006400486550
:0C069E006C6C6F00414848484848000060
:00000001FF
