S01F0000496E737472756D656E745F436C75737465725F546573742E737265638C
S11300000C9434000C9451000C9451000C94510045
S11300100C9451000C9451000C9451000C94510018
S11300200C9451000C9451000C9451000C944C020B
S11300300C9451000C9451000C948F010C945100B9
S11300400C9451000C9451000C9451000C945100E8
S11300500C9451000C9451000C9451000C945100D8
S11300600C9451000C94510011241FBECFEFD8E022
S1130070DEBFCDBF11E0A0E0B1E0E2EBF8E002C0EA
S113008005900D92AC37B107D9F721E0ACE7B1E0A8
S113009001C01D92A538B207E1F70E9429030C9410
S11300A057040C9400001F93CF93DF93C82F162F8F
S11300B088E30E94D601DC2FD07FDC60111119C0C7
S11300C08D2F0E94EE018FE99FE00197F1F700C0A8
S11300D000008D2F887F0E94EE018FE99FE0019739
S11300E0F1F700C000008C2F8295807FC82FCC6070
S11300F01BC08D2F81600E94EE018FE99FE0019764
S1130100F1F700C000008D2F8B7F81600E94EE010B
S11301108FE99FE00197F1F700C0000020E1C29F42
S1130120C0011124C82FCD608C2F0E94EE018FE9ED
S11301309FE00197F1F700C000008C2F8B7F0E9495
S1130140EE018FE99FE00197F1F700C000000E94E3
S1130150FB01DF91CF911F91089560E00E9453004D
S1130160089561E00E945300089582E084BD9CE9F3
S113017097BD80936E0085E085BD0E94C3012FEF7B
S113018089EF90E0215080409040E1F700C00000EA
S113019082E00E94AD008FE19EE40197F1F700C078
S11301A0000082E00E94AD008FE99FE00197F1F723
S11301B000C0000082E00E94AD008FE99FE001973B
S11301C0F1F700C0000088E20E94AD008CE00E94BC
S11301D0AD0081E00E94AD0082E00E94AD00089570
S11301E0CF93DF93EC018881882331F021960E941C
S11301F0B10089918111FBCFDF91CF91089581E006
S11302000E94AD008FE39FE10197F1F700C0000069
S113021080E80E94AD0008951F93CF93DF930E945E
S1130220FF0080E80E94AD0011EB0E94FF0080E80F
S11302300E94AD00C0E1D0E0812F0E94B10021975F
S1130240D9F780EC0E94AD00C0E1D0E0812F0E947C
S1130250B1002197D9F72FEF84E39CE0215080402F
S11302609040E1F700C000001F5F163BF1F680E804
S11302700E94AD00C0E1D0E08FEF0E94B1008FE397
S11302809CE90197F1F700C000002197A9F780ECE1
S11302900E94AD00C0E1D0E08FEF0E94B1008FE377
S11302A09CE90197F1F700C000002197A9F79FEF9F
S11302B029E688E1915020408040E1F700C0000029
S11302C00E94FF0083E80E94AD0089E191E00E9452
S11302D0F0009FEF27E883E1915020408040E1F750
S11302E000C000000E94FF00DF91CF911F9108958C
S11302F081E0809300010E94FF0080E391E00E946E
S1130300F00089E80E94AD0085E391E00E94F000CE
S11303108FE80E94AD008FED0E94B10008951F92F6
S11303200F920FB60F9211242F933F934F935F9325
S11303306F937F938F939F93AF93BF93EF93FF93A9
S113034080910001823070F080917C0190917D0158
S1130350019690937D0180937C018935924014F03D
S11303600E947801FF91EF91BF91AF919F918F917E
S11303707F916F915F914F913F912F910F900FBE9D
S11303800F901F901895E4E6F0E080818F778083CA
S1130390ECEBF0E080818E7F8083E9EBF0E08081FC
S11303A08E7F808388E48093B800089594EA9093C4
S11303B0BC00ECEBF0E090819923ECF79091B9004C
S11303C0880F8093BB0084E88093BC00ECEBF0E0E2
S11303D080818823ECF78091B90008958093BB0055
S11303E084E88093BC00ECEBF0E080818823ECF798
S11303F08091B900089584E98093BC0008958BE34B
S11304000E94D601809101010E94EE010E94FB012D
S1130410089590910101987F892B809301010E9496
S1130420FF01089520910101277C38E0839FC001DA
S11304301124822B809301010E94FF010895909161
S1130440010180FB97F9909301010E94FF01089537
S1130450209101012F7B30E4839FC0011124822B62
S1130460809301010E94FF01089580938401909379
S113047083018AE30E94D601809183010E94EE01E8
S11304800E94FB0189E30E94D601809184010E94AD
S1130490EE010E94FB0108951F920F920FB60F9276
S11304A01124CF92DF92EF92FF920F931F932F9319
S11304B03F934F935F936F937F938F939F93AF93E8
S11304C0BF93CF93DF93EF93FF9380917F018130AC
S11304D0A1F48AE30E94D601809183010E94EE0177
S11304E00E94FB0189E30E94D601809184010E944D
S11304F0EE010E94FB0110927F0180917E018F5FCB
S113050080937E0180917E01843608F47BC0109232
S11305107E0181E090910501911180E090910601A6
S1130520911101C0826090910701911101C0846012
S113053090910201911101C0886090910301911181
S113054001C0806190910401911101C08062809387
S1130550010190918101913019F48064809301012B
S113056080918001813029F4809101018068809319
S113057001018BE30E94D601809101010E94EE01EA
S11305800E94FB013FC0F70191917F0180917E01A0
S1130590981315C020910101C6010C2E02C0880FCA
S11305A0991F0A94E2F7822B809301018BE30E9446
S11305B0D601809101010E94EE010E94FB01F80125
S11305C091918F0180917E01981317C0CE010396FB
S11305D0960102C0220F331F8A95E2F7C901909158
S11305E00101892B809301018BE30E94D601809144
S11305F001010E94EE010E94FB012196C330D10546
S113060011F60EC00F2EF5E0EF2EF1E0FF2EF02DC7
S113061002E011E0C0E0D0E0CC24C394D12CB3CFED
S1130620FF91EF91DF91CF91BF91AF919F918F9106
S11306307F916F915F914F913F912F911F910F91F6
S1130640FF90EF90DF90CF900F900FBE0F901F9010
S113065018950E94C3010E94B5000E940C010E94DB
S1130660FF008FEF9FEF0E94350287E00E9409028E
S113067087E00E94120281E00E941F0281E00E9432
S11306802802EE24E394F12C2FEF85EA9EE021501A
S113069080409040E1F700C000008FEF90E00E949E
S11306A035022FEF85EA9EE0215080409040E1F72B
S11306B000C0000080E09FEF0E9435022FEF85EA22
S11306C09EE0215080409040E1F700C0000000E02F
S11306D010E0CFEFDFEFC701002E02C0880F991F93
S11306E00A94E2F780959095C823D923CE010E94FD
S11306F035022FEF81EE94E0215080409040E1F7E5
S113070000C000000F5F1F4F0031110521F700E109
S113071010E0C701002E02C0880F991F0A94E2F767
S1130720C82BD92BCE010E9435022FEF81EE94E025
S1130730215080409040E1F700C0000001501109B1
S113074040F78FEF95EA2EE0815090402040E1F78A
S113075000C0000080E00E941F028FEF95EA2EE0A7
S1130760815090402040E1F700C0000080E00E94EA
S113077028028FEF95EA2EE0815090402040E1F767
S113078000C0000083E00E9409028FEF95EA2EE08A
S1130790815090402040E1F700C0000080E00E94BA
S11307A009028FEF95EA2EE0815090402040E1F756
S11307B000C0000085E00E9409028FEF95EA2EE058
S11307C0815090402040E1F700C0000086E00E9484
S11307D009028FEF95EA2EE0815090402040E1F726
S11307E000C0000083E00E9412028FEF95EA2EE021
S11307F0815090402040E1F700C0000080E00E945A
S113080012028FEF95EA2EE0815090402040E1F7EC
S113081000C0000085E00E9412028FEF95EA2EE0EE
S1130820815090402040E1F700C0000086E00E9423
S113083012028FEF95EA2EE0815090402040E1F7BC
S113084000C0000087E00E9412028FEF95EA2EE0BC
S1130850815090402040E1F700C0000087E00E94F2
S113086009028FEF95EA2EE0815090402040E1F795
S113087000C0000081E00E941F028FEF95EA2EE085
S1130880815090402040E1F700C0000081E00E94C8
S113089028028FEF95EA2EE0815090402040E1F746
S11308A000C000000E940C010E94FF00EDCEF894ED
S10508B0FFCF74
S11308B201FF6464646464642020202020202020DA
S11308C22020202020202020004C43442052656117
S11308D264792100544D53544D5020524543210014
S11308E2534F433A004261743A00537467732E20A3
S11308F220202020204F702E2058004261636B205C
S11309022020202020204F702E205900536574741B
S1130912696E6773004261636B004F7074696F6E36
S10F09222058004F7074696F6E2059005B
S9030000FC
