S01100007553444472697665722E737265639B
S11300000C9434000C9451000C9451000C94510045
S11300100C9463020C9451000C9451000C94510004
S11300200C9451000C9451000C9451000C94510008
S11300300C9451000C9451000C9416020C94510031
S11300400C9451000C9451000C9451000C945100E8
S11300500C9451000C9451000C9451000C945100D8
S11300600C9451000C94510011241FBECFEFD8E022
S1130070DEBFCDBF13E0A0E0B1E0E4E6FCE102C0E6
S113008005900D92A43CB107D9F723E0A4ECB3E0AA
S113009001C01D92AC3CB207E1F70E94D0050C945C
S11300A0300E0C9400001F93CF93DF93C82F162FAC
S11300B080E20E94A705DC2FD07FDC60111119C0FB
S11300C08D2F0E94BF058FE99FE00197F1F700C0D3
S11300D000008D2F887F0E94BF058FE99FE0019764
S11300E0F1F700C000008C2F8295807FC82FCC6070
S11300F01BC08D2F81600E94BF058FE99FE001978F
S1130100F1F700C000008D2F8B7F81600E94BF0536
S11301108FE99FE00197F1F700C0000020E1C29F42
S1130120C0011124C82FCD608C2F0E94BF058FE918
S11301309FE00197F1F700C000008C2F8B7F0E9495
S1130140BF058FE99FE00197F1F700C000000E940E
S1130150CC05DF91CF911F91089560E00E94530078
S1130160089561E00E945300089582E084BD9CE9F3
S113017097BD80936E0085E085BD0E9494052FEFA6
S113018089EF90E0215080409040E1F700C00000EA
S113019082E00E94AD008FE19EE40197F1F700C078
S11301A0000082E00E94AD008FE99FE00197F1F723
S11301B000C0000082E00E94AD008FE99FE001973B
S11301C0F1F700C0000088E20E94AD008CE00E94BC
S11301D0AD0081E00E94AD0082E00E94AD00089570
S11301E0CF93DF93EC018881882331F021960E941C
S11301F0B10089918111FBCFDF91CF91089581E006
S11302000E94AD008FE39FE10197F1F700C0000069
S113021080E80E94AD000895892B21F480E80E94B3
S1130220AD0003C080EC0E94AD0081E091E00E942B
S1130230F00080E80E94AD0008951F93CF93DF93F0
S11302400E94FF0080E80E94AD0011EB0E94FF00B5
S113025080E80E94AD00C0E1D0E0812F0E94B1008F
S11302602197D9F780EC0E94AD00C0E1D0E0812F46
S11302700E94B1002197D9F72FEF84E39CE021502D
S113028080409040E1F700C000001F5F163BF1F68C
S113029080E80E94AD00C0E1D0E08FEF0E94B10081
S11302A08FE39CE90197F1F700C000002197A9F7BB
S11302B080EC0E94AD00C0E1D0E08FEF0E94B1005D
S11302C08FE39CE90197F1F700C000002197A9F79B
S11302D09FEF29E688E1915020408040E1F700C07B
S11302E000000E94FF0083E80E94AD0082E191E0DB
S11302F00E94F0009FEF27E883E191502040804066
S1130300E1F700C000000E94FF00DF91CF911F9130
S1130310089582EC0E94AD008DE191E00E94F0000E
S11303202FEF87E893E1215080409040E1F700C02F
S1130330000081E090E00E940C01089581E0809328
S113034000010E94FF0089E291E00E94F00089E828
S11303500E94AD008EE291E00E94F0008FE80E94BE
S1130360AD008FED0E94B100089582E080930001FA
S11303701092C5031092C4030E94FF0083E391E02E
S11303800E94F00080EC0E94AD0084E491E00E94A1
S1130390F000089580910001833018F00E94B501A7
S11303A008950E949E01089583E0809300011092B5
S11303B0C5031092C4030E94FF0085E591E00E94EA
S11303C0F00080EC0E94AD008EE591E00E94F00008
S11303D0089584E0809300011092C5031092C40331
S11303E00E94FF0083E691E00E94F00080EC0E94EE
S11303F0AD008EE591E00E94F000089585E08093C1
S113040000011092C5031092C4030E94FF008CE601
S113041091E00E94F00080EC0E94AD008EE591E036
S11304200E94F00008958091000108951F920F9298
S11304300FB60F9211242F933F934F935F936F93B3
S11304407F938F939F93AF93BF93EF93FF93809189
S11304500001823070F08091C4039091C50301962D
S11304609093C5038093C4038935924014F00E948D
S11304709E01FF91EF91BF91AF919F918F917F91D9
S11304806F915F914F913F912F910F900FBE0F90FD
S11304901F9018952F923F92F101118210821382BE
S11304A0128215821482178216823F902F9008952B
S11304B0ECE6F0E080818F608083E8E6F0E0808104
S11304C08260808308951F920F920FB60F921124B9
S11304D02F923F920F931F932F933F934F935F93CA
S11304E06F937F938F939F93AF93BF93EF93FF93F8
S11304F0CF93DF93CDB7DEB72897DEBFCDBF30995A
S113050011C080E090E00196EFE9FFE03197F1F748
S113051000C00000309BF7CF459720F081E090E0C9
S11305209A838983319911C080E090E00196EFE9C4
S1130530FFE03197F1F700C00000319BF7CF4597FA
S113054020F081E090E09C838B8332991FC000E00F
S113055010E00F5F1F4F8FE99FE00197F1F700C094
S11305600000329BF6CF0531110580F00E94130282
S1130570813029F081E090E09E838D8307C0083E9E
S1130580134020F081E090E09E838D8333991FC057
S113059000E010E00F5F1F4FEFE9FFE03197F1F744
S11305A000C00000339BF6CF0531110580F00E9496
S11305B01302813029F081E090E098878F8307C08F
S11305C0083E134020F081E090E098878F830E94DA
S11305D01302833009F44DC028F4813051F0823085
S11305E041F168C0843009F44FC0853009F457C024
S11305F061C089819A81892B19F00E94890114C0F4
S11306008B819C81892B19F00E9489010DC08D81F9
S11306109E81892B19F00E94B50106C08F819885AF
S1130620892B11F00E94B501CE0101961C010E9494
S11306304A0289819A81892B19F00E94D40114C03D
S11306408B819C81892B19F00E94E9010DC08D8159
S11306509E81892B19F00E94CA0106C08F8198855A
S1130660892B11F00E94FE01FE0131961F010E94A8
S11306704A028D819E81892B11F00E94CA01CE010C
S113068001961C010E944A028D819E81892B11F0E2
S11306900E94CA01FE0131961F010E944A028D8107
S11306A09E81892B11F00E94CA01CE0101961C0182
S11306B00E944A029FEFE1EEF4E09150E040F040E6
S11306C0E1F700C0000028960FB6F894DEBF0FBE15
S11306D0CDBFDF91CF91FF91EF91BF91AF919F91EA
S11306E08F917F916F915F914F913F912F911F91C6
S11306F00F913F902F900F900FBE0F901F90189561
S11307008FEF0E94460C0895FF920F931F93CF938F
S1130710DF93C82FD42F152F062FF72E88234CF4E0
S113072040E050E0BA0187E70E948403823040F53C
S1130730CF772A9A0E9480032A980E9480038C2FE4
S11307400E94460C8F2D0E94460C802F0E94460C5E
S1130750812F0E94460C8D2F0E94460CC03421F03C
S1130760C83421F487E803C085E901C081E00E9410
S1130770460CCAE00E948003882314F4C150D1F7C8
S1130780DF91CF911F910F91FF900895AF92BF9287
S1130790CF92DF92EF92FF920F931F93CF93DF9349
S11307A07C0169018091C80383FD09C0032E39E0EF
S11307B0440F551F661F771F3A95D1F7302D81E5F9
S11307C00E948403811135C0C0E4DCE90E948003E7
S11307D08F3F21F42197D1F7C1E02EC08E3F59F508
S11307E082E092E05C01A01AB10AAC18BD08C11401
S11307F0D10429F0E6010E9480032197E1F7E11476
S1130800F10441F0E7010E9480038993015011092A
S1130810D1F707C00E9480030E948C0C015011097B
S1130820C9F70E94800381E0A81AB108D1F7C0E09B
S113083003C0C1E001C0C1E02A9A0E9480038C2F4A
S1130840DF91CF911F910F91FF90EF90DF90CF90A8
S1130850BF90AF9008950F931F93CF93DF930097AA
S113086011F1EA01209709F475C02091C603309173
S1130870C703232B09F470C08C01F80181918F0107
S11308800E94460C2091C6033091C70321503109C0
S11308903093C7032093C603219709F45FC0232B29
S11308A061F7C0E05EC0411551056105710501F1B4
S11308B08091C80383FD09C0032E39E0440F551FFE
S11308C0661F771F3A95D1F7302D88E50E9484037F
S11308D0811146C08FEF0E94460C8EEF0E94460C99
S11308E080E092E09093C7038093C603C0E039C0D0
S11308F0C091C603D091C703CE3FFFEFDF0711F4C9
S113090008C0EC0180E00E94460CCE0101972196BC
S1130910C1F70E9480038F71853059F0C1E016C081
S11309208FE891E00197F1F700C000000150110930
S113093002C008E813E10E9480038F3F19F00115FB
S1130940110571F7C1E0012B09F0C0E02A9A0E9459
S1130950800307C0C0E005C0C0E003C0C0E001C020
S1130960C1E08C2FDF91CF911F910F910895CF9209
S1130970DF92EF92FF920F931F93CF93DF9300D0F8
S113098000D0CDB7DEB78091C803882349F01A9907
S113099007C040E050E0BA0180E090E00E942B04E0
S11309A00E94410C2A9A1AE00E9480031150E1F738
S11309B040E050E0BA0180E40E948403813009F0F1
S11309C089C04AEA51E060E070E088E40E94840350
S11309D0813009F048C0CE0101966C017E0195E09A
S11309E0E90EF11C86010E948003F80181938F01B6
S11309F0EE16FF06C1F78B81813009F06DC08C8142
S1130A008A3A61F0F12C78C08FE891E00197F1F710
S1130A1000C000000150110919F460C000E117E2A0
S1130A2040E050E060E070E489EE0E9484038111AC
S1130A30EBCF012B09F454C040E050E0BA018AE73F
S1130A400E94840381114EC00E948003F6018193A9
S1130A506F01EE15FF05C1F7898186FD45C06894D5
S1130A60FF24F2F849C040E050E0BA0189EE0E9448
S1130A708403823038F0FF24F3940F2EF1E4EF2E38
S1130A80F02D07C06894FF24F1F80F2EF9EEEF2E35
S1130A90F02D00E117E209C08FE891E00197F1F72A
S1130AA000C000000150110921F140E050E0BA01FA
S1130AB08E2D0E9484038111EFCF012BE1F040E0E1
S1130AC052E060E070E080E50E9484038823A1F096
S1130AD0F12C12C0F12C10C0F12C0EC0F12C0CC062
S1130AE0F12C0AC0F12C08C00F2EFCE0FF2EF02DD3
S1130AF003C0F12C01C0F12CF092C8032A9A0E9481
S1130B00800381E0F11080E00F900F900F900F9020
S1130B10DF91CF911F910F91FF90EF90DF90CF90D5
S1130B2008958091C8030895E4E6F0E080818F770A
S1130B308083ECEBF0E080818E7F8083E9EBF0E052
S1130B4080818E7F808388E48093B800089594EA3E
S1130B509093BC00ECEBF0E090819923ECF790913A
S1130B60B900880F8093BB0084E88093BC00ECEB51
S1130B70F0E080818823ECF78091B9000895809398
S1130B80BB0084E88093BC00ECEBF0E08081882318
S1130B90ECF78091B900089584E98093BC0008952E
S1130BA0CF93DF93CDB7DEB7C059D1090FB6F89410
S1130BB0DEBF0FBECDBF60E875E280E090E00E942A
S1130BC04C0C0E94410C0E94B5000E9458020E94E5
S1130BD0B90C0E943A0DCE018B599F4F0E94BC095B
S1130BE060E00E947A0D85E791E00E94190B61E0B4
S1130BF00E947A0D0E941D010E949E017894AE010C
S1130C0041575F4F64E670E0CE0101960E946B0B82
S1130C1062E00E947A0DCE0101960E94970C0E9418
S1130C20B20C2FEF87EA91E6215080409040E1F723
S1130C3000C00000F0CFFC016381862F90E0A0E0AB
S1130C40B0E0BA2FA92F982F88272281822BBA2FA0
S1130C50A92F982F88272181822BBA2FA92F982F6B
S1130C6088272081BC01CD01622B08950F931F9327
S1130C70E091C903F091CA039B01AC0122503109F0
S1130C804109510986819781A085B1850297A109FF
S1130C90B109281739074A075B0768F4A281B0E055
S1130CA00E94160E0289138924893589600F711FE9
S1130CB0821F931F03C060E070E0CB011F910F916E
S1130CC008950F931F93CF93DF93FC01A091C90361
S1130CD0B091CA03118210826481758186819781E3
S1130CE0613071058105910591F116960D911D9163
S1130CF02D913C911997601771078207930748F566
S1130D00EF01611571058105910529F58C918330F9
S1130D1039F51E966D917D918D919C9151976087C7
S1130D20718782879387611571058105910519F093
S1130D300E94360606C01E966D917D918D919C9100
S1130D4051976C877D878E879F8780E00EC081E0F6
S1130D500CC081E00AC06087718782879387E8CFDF
S1130D601086118612861386E6CFDF91CF911F91EC
S1130D700F9108954F925F926F927F928F929F92FC
S1130D80AF92BF92EF92FF920F931F93CF93DF9393
S1130D9000D000D0CDB7DEB7623071058105910572
S1130DA008F4C6C0E090C903F090CA03F701868036
S1130DB09780A084B184681579058A059B0508F09D
S1130DC0BCC04B015C018081823009F465C0833072
S1130DD009F484C0813009F0B5C0240156944794C5
S1130DE0480C591C92013170452C552446942F3FD0
S1130DF0F1E03F0791F0F7014285538564857585DD
S1130E00440D551D611D711D02E010E0CE010196D7
S1130E100E94C603882359F19AC0612C712CF701F2
S1130E204285538564857585440D551D661D771D62
S1130E3001E010E02FEF31E0CE0101960E94C603DD
S1130E4081118AC0F70142855385648575854F5F9A
S1130E505F4F6F4F7F4F440D551D661D771D20E07A
S1130E6030E0CE0102960E94C60381117AC06A81E5
S1130E7070E0762F66278981682B80FE09C0729501
S1130E8062956F7067277F70672780E090E077C076
S1130E907F7080E090E073C094013327220F331FEA
S1130EA077276B2D5A2D492DF70182859385A485CB
S1130EB0B585480F591F6A1F7B1F02E010E0CE0161
S1130EC001960E94C603811151C06A8170E0762F99
S1130ED066278981682B80E090E051C094012F77C8
S1130EE03327220F331F220F331FD501C401689407
S1130EF016F8B695A795979587951694D1F7F701A7
S1130F0082849384A484B584AC01BD01480D591D29
S1130F106A1D7B1D04E010E0CE0101960E94C60309
S1130F20811129C0CE0101960E941B069F7027C023
S1130F3061E070E080E090E022C061E070E080E079
S1130F4090E01DC061E070E080E090E018C061E0D6
S1130F5070E080E090E013C061E070E080E090E039
S1130F600EC061E070E080E090E009C061E070E0F4
S1130F7080E090E004C061E070E080E090E00F90D9
S1130F800F900F900F90DF91CF911F910F91FF90D1
S1130F90EF90BF90AF909F908F907F906F905F90F5
S1130FA04F900895CF92DF92EF92FF920F931F9389
S1130FB0CF93DF93FC01C081D181219609F460C0F5
S1130FC0448555856685778541155105610571050B
S1130FD009F458C08C01CE018F709927892B09F030
S1130FE04AC0E090C903F090CA034F5F5F4F6F4F50
S1130FF07F4F44875587668777874085518562850B
S11310007385411551056105710539F4F701848132
S11310109581C817D907C0F52EC0F701828190E0E9
S113102001979E01329522952F7023273F70232725
S113103082239323892BF9F4CB01BA010E94BA06C7
S1131040623071058105910508F1F701C680D780EA
S1131050E084F1846C157D058E059F05C8F4F801C4
S113106060877187828793870E943606F8016487B8
S1131070758786879787F801D183C08380E009C08C
S113108083E007C083E005C083E003C081E001C0C2
S113109083E0DF91CF911F910F91FF90EF90DF904C
S11310A0CF900895CF92DF92EF92FF920F931F9308
S11310B0CF93DF93EC016A017B0102E010E02EEF95
S11310C031E00E94C603811132C0898190E0982FDB
S11310D088272881822B85359A4A59F526E330E002
S11310E0B701A601CE010E94C603811109C08981FE
S11310F090E0982F88272881822B86349144D9F058
S113110002E010E022E530E0B701A601CE010E9422
S1131110C603811112C0298130E0322F2227888131
S1131120282B81E02634314449F480E007C083E071
S113113005C082E003C080E001C081E0DF91CF916F
S11311401F910F91FF90EF90DF90CF9008950F9330
S11311501F93FC01A091C903B091CA038C91833001
S113116069F4658970E0762F66278489682BCB0142
S1131170A0E0B0E0BC015527442703C040E050E0A4
S1131180BA01238D30E0322F2227828D282BC9010A
S1131190A0E0B0E08C019D01042B152B262B372BEE
S11311A0C901B8011F910F9108952F923F924F9258
S11311B05F926F927F928F929F92AF92BF92CF92E3
S11311C0DF92EF92FF920F931F93CF93DF937C01F3
S11311D06B015A01FA018081803229F431965F0152
S11311E081918032E1F38F3219F4FFEFAF1ABF0A15
S11311F0F7011482158216821782F50180818032EC
S113120038F4C7010E946106482FF6011082A0C07D
S11312106894992495F8612C6894442443F8242C08
S11312200F2EFBE03F2EF02D55245394E6012B9610
S1131230852C762CF701A281B381FD01CD010B969B
S113124091928E179F07E1F7962D862D342D01C0BC
S1131250822F21E0280FF501E80FF11D80818132F2
S1131260C8F08F32B9F08E3209F466C0931790F447
S113127088232CF4E82FF0E0E250FF4F80814FE9FF
S1131280480F4A3108F48052FD01E90FF11D8083B3
S11312909F5FDECFA20EB11C952D813208F0962DF2
S11312A01B969C93C7010E946106482F811150C070
S11312B0F701208131812F703327220F331F2295AC
S11312C03295307F3227207F3227448555856685C5
S11312D0778500E210E0C6010E94C603482D811103
S11312E001C0472D411134C0F6018081882379F172
S11312F0538553FD0DC0F70182819381F601DC0112
S113130003C0CE17DF07F1F031912D913217C9F3E5
S1131310C7010E94D207482F882351F219C054FFF5
S113132009C0C6010E94A708F701648375838683F8
S1131330978380CF43E00CC0383009F0ABCF922DB7
S1131340332D86CFFC018385882349F301C043E014
S1131350842FDF91CF911F910F91FF90EF90DF9039
S1131360CF90BF90AF909F908F907F906F905F9041
S11313704F903F902F9008954F925F926F927F927B
S11313808F929F92AF92BF92DF92EF92FF920F9350
S11313901F93CF93DF93CDB7DEB7AC970FB6F89416
S11313A0DEBF0FBECDBF7C011092CA031092C903E9
S11313B00E94B70480FD15C140E050E0BA01CE019F
S11313C001960E9452088130F1F400E110E02EEB06
S11313D031E040E050E0BA01CE0101960E94C6031C
S11313E0811101C18D81882309F4FFC0CE010996C2
S11313F00E941B064B015C01AB01BC01CE010196AE
S11314000E94520803C0812C912C5401833009F4AA
S1131410EEC08111EEC004E210E02DE030E0B50131
S1131420A401CE0101960E94C6038111E4C02B855C
S113143030E0322F22278A85282B40E050E0211506
S113144031054105510531F4CE0148960E941B0631
S11314509B01AC01AC81B0E00E94160E6DA37EA38B
S11314608FA398A74B80512C542C44248A81482A5A
S1131470612C712C840C951CA61CB71CD7011A96E0
S11314808D929D92AD92BC921D97D9801296DC925A
S113149012970E8110E0102F00278D81082B1596CE
S11314A01C930E931497688570E0762F66278F81BE
S11314B0682B80E090E0611571058105910521F4A8
S11314C0CE0144960E941B06129502950F700127C7
S11314D01F700127980140E050E029A73AA74BA7C5
S11314E05CA7DC01CB0184199509A609B7092DA1D4
S11314F03EA14FA158A5821B930BA40BB50BBC01B5
S1131500CD0129A53AA54BA55CA5621B730B840BE1
S1131510950B2D2D30E040E050E00E94F40DDA01EF
S1131520C9010296A11DB11DF70186839783A08787
S1131530B187BA01A901465F5F40610971094F3F54
S11315405F4E6105710548F021E0873F3FE0930756
S1131550A105B10518F020E001C022E0873F9F4FAC
S1131560A105B10508F04BC0222309F446C0D701F8
S11315702C93233051F4CE0180960E941B06F70170
S113158066877787808B918B0DC08DA19EA1AFA1BB
S1131590B8A5880D991DAA1DBB1DF70186879787DD
S11315A0A08BB18B29A53AA54BA55CA5820E931EF1
S11315B0A41EB51E8DA19EA1AFA1B8A5880E991E2B
S11315C0AA1EBB1ED70152968D929D92AD92BC92DB
S11315D0559711961C92F092CA03E092C90380E0D9
S11315E012C082E010C081E00EC086E00CC081E031
S11315F00AC086E008C081E006C086E004C083E03B
S1131600F7018083B8CFAC960FB6F894DEBF0FBE57
S1131610CDBFDF91CF911F910F91FF90EF90DF909D
S1131620BF90AF909F908F907F906F905F904F90FE
S113163008950F931F93CF93DF93CDB7DEB7EC9745
S11316400FB6F894DEBF0FBECDBF0091C903109151
S1131650CA030115110579F1AC01F8011182CE011B
S113166041969C838B83BE01635E7F4F40970E94AB
S1131670D508811125C08D8D8823F9F088A584FDB6
S11316801EC0CE014D960E94A708F801668F778F81
S113169080A391A3CE01C9960E941B06F801628F14
S11316A0738F848F958F168A178A108E118E81E01E
S11316B0818380E005C085E003C083E001C083E04E
S11316C0EC960FB6F894DEBF0FBECDBFDF91CF917D
S11316D01F910F9108956F927F928F929F92AF9274
S11316E0BF92CF92DF92EF92FF920F931F93CF930B
S11316F0DF935C016B013A01C091C903D091CA0325
S1131700FA0111821082209709F4A7C0898180FF11
S1131710A6C08A8D9B8DAC8DBD8D4E895F89688DE9
S1131720798D841B950BA60BB70BA60160E070E0C6
S113173084179507A607B70708F46C01C114D104F0
S113174009F48FC0812C6894992491F88E899F891B
S1131750A88DB98DAC01BD01517066277727452B43
S1131760462B472B09F042C0FA80FA94AC01BD0124
S1131770032E39E076956795579547953A95D1F7B5
S1131780302DF422D9F4892B8A2B8B2B29F46E8DDE
S11317907F8D88A199A106C06AA17BA18CA19DA17E
S11317A00E94BA06623071058105910518F4198208
S11317B081E058C06AA37BA38CA39DA36AA17BA1EB
S11317C08CA19DA10E9436066115710581059105C4
S11317D019F4198281E046C0DC01CB018F0D911D03
S11317E0A11DB11D8EA39FA3A8A7B9A72E893F89C8
S11317F031707401E21AF30ACE14DF0408F476019E
S11318004EA15FA168A579A58701C5010E94C60301
S1131810882319F0198281E025C08E899F89A88DBB
S1131820B98D8E0D9F1DA11DB11D8E8B9F8BA88F11
S1131830B98FCE18DF08F301808191818E0D9F1D31
S113184091838083A114B10411F0AE0CBF1CC114A8
S1131850D10409F07BCF80E005C085E003C084E0BB
S113186001C080E0DF91CF911F910F91FF90EF9025
S1131870DF90CF90BF90AF909F908F907F906F90AC
S113188008958CE284B981E58CBD08958EBD0DB4B4
S113189007FEFDCF8EB50895603825E272078105F5
S11318A0910509F1DC01CB01880F991FAA1FBB1F09
S11318B0880F991FAA1FBB1F9C01AD01220F331F64
S11318C0441F551F220F331F441F551F60E074E24D
S11318D084EF90E00E94F40DBA01A901415051092E
S11318E06109710904C047E650E060E070E0BB277D
S11318F0A72F962F852F8093C5004093C40088E1BD
S11319008093C1008EE08093C20008958091C0004E
S113191085FB882780F90895CF93C82F0E94860CF1
S11319208823E1F3C093C60080E0CF9108950F931C
S11319301F93CF93DF93FC0101900020E9F73197C7
S1131940E81BF90B51F0EC018C010E0F1F1F89915C
S11319500E948C0CC017D107D1F7DF91CF911F9152
S11319600F9108958DE00E948C0C8AE00E948C0CEB
S113197008950F931F93CF93DF93CDB7DEB7C75767
S1131980D1090FB6F894DEBF0FBECDBF87E2EEEFEC
S1131990F1E0DE01119601900D928A95E1F788E25B
S11319A0E5E2F2E0DE01989601900D928A95E1F766
S11319B088E2EDE4F2E0DE01A05BBF4F01900D92FE
S11319C08A95E1F707E210E083E20E948C0C015053
S11319D01109D1F70E94B20CCE0101960E94970C16
S11319E00E94B20CCE0188960E94970C0E94B20C01
S11319F0CE01805B9F4F0E94970C0E94B20C0E9404
S1131A00B20C07E210E083E20E948C0C0150110931
S1131A10D1F70E94B20CC958DF4F0FB6F894DEBF5D
S1131A200FBECDBFDF91CF911F910F910895CF933A
S1131A30DF93982F92959F709A3018F4D0E3D90FC2
S1131A4002C0D7E3D90F8F708A3018F4C0E3C80FEF
S1131A5002C0C7E3C80F80E30E948C0C88E70E9491
S1131A608C0C8D2F0E948C0C8C2F0E948C0CDF917F
S1131A70CF9108950E94B7048093CB03811133C0A2
S1131A8085E792E00E94970C0E949105813029F429
S1131A9085E892E00E94970C23C00E949105823051
S1131AA029F48BE892E00E94970C1AC00E949105D9
S1131AB0843029F480E992E00E94970C11C00E94BE
S1131AC091058C3029F482EA92E00E94970C08C0B8
S1131AD085EB92E00E94970C0E9491050E94170DDD
S1131AE00E94B20C089586EC92E00E94970C0E942A
S1131AF0B20C0895CF93C82F613081F018F0623092
S1131B0049F134C0811105C084EE92E00E94970C23
S1131B1063C087EF92E00E94970C61C081110DC0F1
S1131B2089E093E00E94970C85E791E00E94970C6E
S1131B3083E193E00E94970C4FC089E093E00E94F8
S1131B40970C85E791E00E94970C82E293E00E9453
S1131B50970C45C0811105C080E393E00E94970C67
S1131B603BC082E493E00E94970C39C00E94B20CFF
S1131B70CC23C1F183E593E00E94970CC330B1F00C
S1131B8028F4C13049F0C23061F023C0C530C1F03F
S1131B9090F0C630D1F01DC089E593E00E94970C07
S1131BA018C089E693E00E94970C13C08AE793E07B
S1131BB00E94970C0EC089E893E00E94970C09C01C
S1131BC08BE993E00E94970C04C08EEA93E00E9494
S1131BD0970C0E94B20C06C00E94B20C03C00E9473
S1131BE0B20CC8CFCF910895A1E21A2EAA1BBB1B39
S1131BF0FD010DC0AA1FBB1FEE1FFF1FA217B307D5
S1131C00E407F50720F0A21BB30BE40BF50B661FEA
S1131C10771F881F991F1A9469F7609570958095AE
S1131C2090959B01AC01BD01CF0108950E94210E46
S1131C30A59F900DB49F900DA49F800D911D11241C
S1131C400895A29FB001B39FC001A39F700D811D91
S1131C501124911DB29F700D811D1124911D0895B1
S1071C60F894FFCF22
S1131C64012020202020202020202020202020208B
S1131C7420004C43442052656164792100544D533F
S1131C84544D50205245432100534F433A0042617E
S1131C94743A00537467732E2020202020204F7040
S1131CA42E2058004261636B202020202020204FE6
S1131CB4702E20590053657474696E677300426111
S1131CC4636B004F7074696F6E2058004F707469B1
S1131CD46F6E205900544553542E54585400809A1E
S1131CE445418E418F804545454949498E8F90929F
S1131CF4924F994F555559999A9B9C9D9E9F414942
S1131D044F55A5A5A6A7A8A9AAABACADAEAFB0B1D3
S1131D14B2B3B4B5B6B7B8B9BABBBCBDBEBFC0C123
S1131D24C2C3C4C5C6C7C8C9CACBCCCDCECFD0D113
S1131D34D2D3D4D5D6D7D8D9DADBDCDDDEDFE0E103
S1131D44E2E3E4E5E6E7E8E9EAEBECEDEEEFF0F1F3
S1131D54F2F3F4F5F6F7F8F9FAFBFCFDFEFF5F5F26
S1131D645F202020202020205F5F20202020205F6F
S1131D742020202020202020205F5F205F5F5F2020
S1131D845F20205F00207C20207C5C207C20285F56
S1131D9420202020202F20207C20207C207C202810
S1131DA45F2020207C207C5F207C5F29005F7C5F97
S1131DB4207C205C7C205F5F29206F20205C5F20D6
S1131DC47C5F207C5F7C205F5F2920207C207C5FFB
S1131DD4207C205C002A2A2A204449534B2054594D
S1131DE450453A20004D4D43763300534453430049
S1131DF4534448432B202842595445204D4F4445CD
S1131E042900534448432B2028424C4F434B204D34
S1131E144F44452900554E4B4E4F574E2C20434FAB
S1131E244445203D20002A2A2A20434F554C44206F
S1131E344E4F54205052494E54204449534B204948
S1131E444E464F002A2A2A204D4F554E54205355AE
S1131E54434345535321002A2A2A204D4F554E54B7
S1131E64204641494C2E2E2E002A2A2A2046494C2B
S1131E74452000204F50454E20535543434553536A
S1131E842100204F50454E204641494C2E2E2E0011
S1131E942A2A2A2052454144205355434345535347
S1131EA421002A2A2A2052454144204641494C2EE5
S1131EB42E2E004572723A200046525F4449534B19
S1131EC45F455252202831290046525F4E4F545FD9
S1131ED45245414459202832290046525F4E4F5FEF
S1131EE446494C45202833290046525F4E4F545FDF
S1131EF44F50454E4544202834290046525F4E4FE6
S1131F04545F454E41424C454420283529004652ED
S1131F145F4E4F5F46494C4553595354454D202811
S1071F243629000056
S9030000FC
