S013000043414E20524543454956452E737265631C
S11300000C9434000C9456010C9446000C94460055
S11300100C9446000C9446000C9446000C94460044
S11300200C9446000C9446000C9446000C94460034
S11300300C9446000C9446000C9446000C94460024
S11300400C9446000C9446000C9446000C94460014
S11300500C94BB010C9446000C9446000C9446008E
S11300600C9446000C94460011241FBECFEFD8E038
S1130070DEBFCDBF21E0A0E0B1E001C01D92A438F5
S1130080B207E1F70E94E4010C94EB010C94000028
S11300908CE284B980E58CBD81E08DBD08958EBD70
S11300A00DB407FEFDCF8EB50895811103C02A9AC1
S11300B0229A08952A98229A0895CF93C82F81E00E
S11300C00E94550083E00E944F008C2F0E944F0035
S11300D080E00E944F00C82F80E00E9455008C2FC2
S11300E0CF910895CF93DF93D82FC62F81E00E943C
S11300F0550082E00E944F008D2F0E944F008C2FEC
S11301000E944F0080E00E945500DF91CF91089536
S11301101F93CF93DF93182FD62FC42F81E00E9413
S1130120550085E00E944F00812F0E944F008D2FC3
S11301300E944F008C2F0E944F0080E00E945500C7
S1130140DF91CF911F91089581E00E94550080ECCA
S11301500E944F0080E00E94550008950F931F9362
S1130160CF93DF93EC018C011695079516950795AF
S113017016950795602F80E20E947200C295CC0FFD
S1130180C07E6C2F81E20E947200602F84E20E9484
S113019072006C2F85E20E947200DF91CF911F9153
S11301A00F9108950F931F93CF93DF93EC018C016C
S11301B0169507951695079516950795602F80E077
S11301C00E947200C295CC0FC07E6C2F81E00E9409
S11301D07200602F84E00E9472006C2F85E00E9400
S11301E07200602F88E00E9472006C2F89E00E94E8
S11301F07200602F80E10E9472006C2F81E10E94E6
S11302007200602F84E10E9472006C2F85E10E94CD
S11302107200602F88E10E9472006C2F89E10E94B5
S11302207200DF91CF911F910F9108951F93CF9387
S1130230DF93182FD62FC42F8EE00E945D00829585
S113024086958770843079F4612F8AE20E94720067
S11302506D2F89E20E9472004C2F67E088E20E94B1
S1130260880081E001C080E0DF91CF911F91089563
S1130270E9E6F0E080818260808380818160808310
S1130280E89A41E061E08BE20E94880041E062E08C
S11302908BE20E94880040E062E08CE20E948800C9
S11302A040E061E08CE20E94880008951F920F9262
S11302B00FB60F9211242F933F934F935F936F9335
S11302C07F938F939F93AF93BF93EF93FF9340E0FC
S11302D062E08CE20E94880040E061E08CE20E94CF
S11302E0880081E090E09093030180930201FF91E4
S11302F0EF91BF91AF919F918F917F916F915F919A
S11303004F913F912F910F900FBE0F901F90189512
S11303100E9448000E9438010E94A40040E860EE58
S11303208FE00E9488008EE00E945D008295869591
S113033087708430C1F741E061E981E00E941601D1
S113034080E090E00E94AE0080E090E00E94D20045
S113035040E064E080E60E94880040E060EE8FE0C8
S11303600E9488008EE00E945D00829586958770C9
S1130370C9F7789408951F920F920FB60F92112423
S11303808F939F93EF93FF93E0910101809100017C
S1130390E81789F0F0E0EC5FFE4F80818093C6009F
S11303A08091010191E0980F1AF09093010103C02C
S11303B08E5F80930101FF91EF919F918F910F9038
S11303C00FBE0F901F9018950E948801E6ECF0E094
S10D03D081E38083FECFF894FFCF91
S9030000FC
