S00B00004443552E737265633D
S11300000C9434000C9451000C9451000C94510045
S11300100C9451000C9451000C9451000C94510018
S11300200C9451000C9451000C9451000C94510008
S11300300C9451000C9451000C9478000C945100D1
S11300400C9451000C9451000C9451000C945100E8
S11300500C9451000C9451000C9451000C945100D8
S11300600C9451000C94510011241FBECFEFD8E022
S1130070DEBFCDBF11E0A0E0B1E0ECE8F2E002C0E9
S113008005900D92AE30B107D9F721E0AEE0B1E0B2
S113009001C01D92A031B207E1F70E9443010C9404
S11300A044010C94000094EA9093BC00ECEBF0E063
S11300B090819923ECF79091B900880F8093BB004D
S11300C084E88093BC00ECEBF0E080818823ECF7BB
S11300D08091B90008958093BB0084E88093BC00AC
S11300E0ECEBF0E080818823ECF78091B90008956F
S11300F01F920F920FB60F9211249F92AF92BF924C
S1130100CF92DF92EF92FF920F931F932F933F931F
S11301104F935F936F937F938F939F93AF93BF930B
S1130120CF93DF93EF93FF9380910E0190910F0192
S1130130019690930F0180930E0180910E0190918E
S11301400F01843691050CF46BC010920F011092CC
S11301500E01109201011092000180E20E945300EE
S113016080910001909101010E946B0084E98093C9
S1130170BC0056C0F701219131917F0180910E019D
S113018090910F0128173907E1F4809100019091B3
S1130190010195010C2E02C0220F331F0A94E2F7CD
S11301A0822B932B909301018093000180E20E94A3
S11301B0530080910001909101010E946B00F601AF
S11301C09082F801219131918F0180910E019091DB
S11301D00F0128173907F1F4809100019091010172
S11301E09E012B5F3F4FA50102C0440F551F2A9566
S11301F0E2F7842B952B909301018093000180E218
S11302000E94530080910001909101010E946B00B3
S1130210F60190822196C330D10509F0ABCF17C007
S11302200F2EF8E0EF2EF1E0FF2EF02D02E011E0AA
S1130230C0E0D0E0AA24A394B12C0F2EFCEBCF2E67
S1130240D12CF02D0F2EF4E99F2EF02D93CFFF919A
S1130250EF91DF91CF91BF91AF919F918F917F915A
S11302606F915F914F913F912F911F910F91FF904B
S1130270EF90DF90CF90BF90AF909F900F900FBE04
S10F02800F901F901895FFCFF894FFCF4B
S111028C070064006400640064006400640001
S9030000FC
